{
  "contractName": "SavingsCELOVoterV1",
  "abi": [
    {
      "inputs": [
        {
          "internalType": "address",
          "name": "savingsCELO",
          "type": "address"
        }
      ],
      "stateMutability": "nonpayable",
      "type": "constructor"
    },
    {
      "anonymous": false,
      "inputs": [
        {
          "indexed": true,
          "internalType": "address",
          "name": "previousOwner",
          "type": "address"
        },
        {
          "indexed": true,
          "internalType": "address",
          "name": "newOwner",
          "type": "address"
        }
      ],
      "name": "OwnershipTransferred",
      "type": "event"
    },
    {
      "inputs": [],
      "name": "_proxy",
      "outputs": [
        {
          "internalType": "contract IVoterProxy",
          "name": "",
          "type": "address"
        }
      ],
      "stateMutability": "view",
      "type": "function"
    },
    {
      "inputs": [],
      "name": "owner",
      "outputs": [
        {
          "internalType": "address",
          "name": "",
          "type": "address"
        }
      ],
      "stateMutability": "view",
      "type": "function"
    },
    {
      "inputs": [],
      "name": "renounceOwnership",
      "outputs": [],
      "stateMutability": "nonpayable",
      "type": "function"
    },
    {
      "inputs": [
        {
          "internalType": "address",
          "name": "newOwner",
          "type": "address"
        }
      ],
      "name": "transferOwnership",
      "outputs": [],
      "stateMutability": "nonpayable",
      "type": "function"
    },
    {
      "inputs": [],
      "name": "votedGroup",
      "outputs": [
        {
          "internalType": "address",
          "name": "",
          "type": "address"
        }
      ],
      "stateMutability": "view",
      "type": "function"
    },
    {
      "inputs": [
        {
          "internalType": "address",
          "name": "newGroup",
          "type": "address"
        },
        {
          "internalType": "uint256",
          "name": "votedGroupIndex",
          "type": "uint256"
        },
        {
          "internalType": "address",
          "name": "lesserAfterPendingRevoke",
          "type": "address"
        },
        {
          "internalType": "address",
          "name": "greaterAfterPendingRevoke",
          "type": "address"
        },
        {
          "internalType": "address",
          "name": "lesserAfterActiveRevoke",
          "type": "address"
        },
        {
          "internalType": "address",
          "name": "greaterAfterActiveRevoke",
          "type": "address"
        }
      ],
      "name": "changeVotedGroup",
      "outputs": [],
      "stateMutability": "nonpayable",
      "type": "function"
    },
    {
      "inputs": [
        {
          "internalType": "address",
          "name": "lesser",
          "type": "address"
        },
        {
          "internalType": "address",
          "name": "greater",
          "type": "address"
        }
      ],
      "name": "activateAndVote",
      "outputs": [],
      "stateMutability": "nonpayable",
      "type": "function"
    }
  ],
  "bytecode": "0x608060405234801561001057600080fd5b50604051611b8b380380611b8b8339818101604052602081101561003357600080fd5b8101908080519060200190929190505050600061005461013960201b60201c565b9050806000806101000a81548173ffffffffffffffffffffffffffffffffffffffff021916908373ffffffffffffffffffffffffffffffffffffffff1602179055508073ffffffffffffffffffffffffffffffffffffffff16600073ffffffffffffffffffffffffffffffffffffffff167f8be0079c531659141344cd1fd0a4f28419497f9722a3daafe3b4186f6b6457e060405160405180910390a35080600160006101000a81548173ffffffffffffffffffffffffffffffffffffffff021916908373ffffffffffffffffffffffffffffffffffffffff16021790555050610141565b600033905090565b611a3b806101506000396000f3fe608060405234801561001057600080fd5b506004361061007d5760003560e01c80638da5cb5b1161005b5780638da5cb5b146101a4578063c0718be6146101ee578063cc2effdc14610252578063f2fde38b1461029c5761007d565b8063037e8ae4146100825780636c49d5ec146100cc578063715018a61461019a575b600080fd5b61008a6102e0565b604051808273ffffffffffffffffffffffffffffffffffffffff1673ffffffffffffffffffffffffffffffffffffffff16815260200191505060405180910390f35b610198600480360360c08110156100e257600080fd5b81019080803573ffffffffffffffffffffffffffffffffffffffff16906020019092919080359060200190929190803573ffffffffffffffffffffffffffffffffffffffff169060200190929190803573ffffffffffffffffffffffffffffffffffffffff169060200190929190803573ffffffffffffffffffffffffffffffffffffffff169060200190929190803573ffffffffffffffffffffffffffffffffffffffff169060200190929190505050610306565b005b6101a2610a90565b005b6101ac610c18565b604051808273ffffffffffffffffffffffffffffffffffffffff1673ffffffffffffffffffffffffffffffffffffffff16815260200191505060405180910390f35b6102506004803603604081101561020457600080fd5b81019080803573ffffffffffffffffffffffffffffffffffffffff169060200190929190803573ffffffffffffffffffffffffffffffffffffffff169060200190929190505050610c41565b005b61025a611479565b604051808273ffffffffffffffffffffffffffffffffffffffff1673ffffffffffffffffffffffffffffffffffffffff16815260200191505060405180910390f35b6102de600480360360208110156102b257600080fd5b81019080803573ffffffffffffffffffffffffffffffffffffffff16906020019092919050505061149f565b005b600260009054906101000a900473ffffffffffffffffffffffffffffffffffffffff1681565b61030e6116ac565b73ffffffffffffffffffffffffffffffffffffffff166000809054906101000a900473ffffffffffffffffffffffffffffffffffffffff1673ffffffffffffffffffffffffffffffffffffffff16146103cf576040517f08c379a00000000000000000000000000000000000000000000000000000000081526004018080602001828103825260208152602001807f4f776e61626c653a2063616c6c6572206973206e6f7420746865206f776e657281525060200191505060405180910390fd5b600073ffffffffffffffffffffffffffffffffffffffff16600260009054906101000a900473ffffffffffffffffffffffffffffffffffffffff1673ffffffffffffffffffffffffffffffffffffffff1614610a4757600061042f6116b4565b905060008173ffffffffffffffffffffffffffffffffffffffff16639b95975f600260009054906101000a900473ffffffffffffffffffffffffffffffffffffffff16600160009054906101000a900473ffffffffffffffffffffffffffffffffffffffff166040518363ffffffff1660e01b8152600401808373ffffffffffffffffffffffffffffffffffffffff1673ffffffffffffffffffffffffffffffffffffffff1681526020018273ffffffffffffffffffffffffffffffffffffffff1673ffffffffffffffffffffffffffffffffffffffff1681526020019250505060206040518083038186803b15801561052857600080fd5b505afa15801561053c573d6000803e3d6000fd5b505050506040513d602081101561055257600080fd5b8101908080519060200190929190505050905060008273ffffffffffffffffffffffffffffffffffffffff1663d3e242a4600260009054906101000a900473ffffffffffffffffffffffffffffffffffffffff16600160009054906101000a900473ffffffffffffffffffffffffffffffffffffffff166040518363ffffffff1660e01b8152600401808373ffffffffffffffffffffffffffffffffffffffff1673ffffffffffffffffffffffffffffffffffffffff1681526020018273ffffffffffffffffffffffffffffffffffffffff1673ffffffffffffffffffffffffffffffffffffffff1681526020019250505060206040518083038186803b15801561065c57600080fd5b505afa158015610670573d6000803e3d6000fd5b505050506040513d602081101561068657600080fd5b81019080805190602001909291905050509050600082111561086e57600160009054906101000a900473ffffffffffffffffffffffffffffffffffffffff1673ffffffffffffffffffffffffffffffffffffffff166342dcfe9c600260009054906101000a900473ffffffffffffffffffffffffffffffffffffffff16848a8a8d6040518663ffffffff1660e01b8152600401808673ffffffffffffffffffffffffffffffffffffffff1673ffffffffffffffffffffffffffffffffffffffff1681526020018581526020018473ffffffffffffffffffffffffffffffffffffffff1673ffffffffffffffffffffffffffffffffffffffff1681526020018373ffffffffffffffffffffffffffffffffffffffff1673ffffffffffffffffffffffffffffffffffffffff16815260200182815260200195505050505050602060405180830381600087803b1580156107dd57600080fd5b505af11580156107f1573d6000803e3d6000fd5b505050506040513d602081101561080757600080fd5b810190808051906020019092919050505061086d576040517f08c379a00000000000000000000000000000000000000000000000000000000081526004018080602001828103825260248152602001806119e26024913960400191505060405180910390fd5b5b6000811115610a4357600160009054906101000a900473ffffffffffffffffffffffffffffffffffffffff1673ffffffffffffffffffffffffffffffffffffffff16636479e85a600260009054906101000a900473ffffffffffffffffffffffffffffffffffffffff168388888d6040518663ffffffff1660e01b8152600401808673ffffffffffffffffffffffffffffffffffffffff1673ffffffffffffffffffffffffffffffffffffffff1681526020018581526020018473ffffffffffffffffffffffffffffffffffffffff1673ffffffffffffffffffffffffffffffffffffffff1681526020018373ffffffffffffffffffffffffffffffffffffffff1673ffffffffffffffffffffffffffffffffffffffff16815260200182815260200195505050505050602060405180830381600087803b1580156109b257600080fd5b505af11580156109c6573d6000803e3d6000fd5b505050506040513d60208110156109dc57600080fd5b8101908080519060200190929190505050610a42576040517f08c379a000000000000000000000000000000000000000000000000000000000815260040180806020018281038252602381526020018061199b6023913960400191505060405180910390fd5b5b5050505b85600260006101000a81548173ffffffffffffffffffffffffffffffffffffffff021916908373ffffffffffffffffffffffffffffffffffffffff160217905550505050505050565b610a986116ac565b73ffffffffffffffffffffffffffffffffffffffff166000809054906101000a900473ffffffffffffffffffffffffffffffffffffffff1673ffffffffffffffffffffffffffffffffffffffff1614610b59576040517f08c379a00000000000000000000000000000000000000000000000000000000081526004018080602001828103825260208152602001807f4f776e61626c653a2063616c6c6572206973206e6f7420746865206f776e657281525060200191505060405180910390fd5b600073ffffffffffffffffffffffffffffffffffffffff166000809054906101000a900473ffffffffffffffffffffffffffffffffffffffff1673ffffffffffffffffffffffffffffffffffffffff167f8be0079c531659141344cd1fd0a4f28419497f9722a3daafe3b4186f6b6457e060405160405180910390a360008060006101000a81548173ffffffffffffffffffffffffffffffffffffffff021916908373ffffffffffffffffffffffffffffffffffffffff160217905550565b60008060009054906101000a900473ffffffffffffffffffffffffffffffffffffffff16905090565b600073ffffffffffffffffffffffffffffffffffffffff16600260009054906101000a900473ffffffffffffffffffffffffffffffffffffffff1673ffffffffffffffffffffffffffffffffffffffff161415610d06576040517f08c379a00000000000000000000000000000000000000000000000000000000081526004018080602001828103825260168152602001807f766f7465642067726f7570206973206e6f74207365740000000000000000000081525060200191505060405180910390fd5b6000610d106116b4565b90508073ffffffffffffffffffffffffffffffffffffffff1663263ecf74600160009054906101000a900473ffffffffffffffffffffffffffffffffffffffff16600260009054906101000a900473ffffffffffffffffffffffffffffffffffffffff166040518363ffffffff1660e01b8152600401808373ffffffffffffffffffffffffffffffffffffffff1673ffffffffffffffffffffffffffffffffffffffff1681526020018273ffffffffffffffffffffffffffffffffffffffff1673ffffffffffffffffffffffffffffffffffffffff1681526020019250505060206040518083038186803b158015610e0757600080fd5b505afa158015610e1b573d6000803e3d6000fd5b505050506040513d6020811015610e3157600080fd5b810190808051906020019092919050505015610fb857600160009054906101000a900473ffffffffffffffffffffffffffffffffffffffff1673ffffffffffffffffffffffffffffffffffffffff166303c4181d600260009054906101000a900473ffffffffffffffffffffffffffffffffffffffff166040518263ffffffff1660e01b8152600401808273ffffffffffffffffffffffffffffffffffffffff1673ffffffffffffffffffffffffffffffffffffffff168152602001915050602060405180830381600087803b158015610f0a57600080fd5b505af1158015610f1e573d6000803e3d6000fd5b505050506040513d6020811015610f3457600080fd5b8101908080519060200190929190505050610fb7576040517f08c379a000000000000000000000000000000000000000000000000000000000815260040180806020018281038252601f8152602001807f616374697661746520666f7220766f7465642067726f7570206661696c65640081525060200191505060405180910390fd5b5b6000610fc261178f565b73ffffffffffffffffffffffffffffffffffffffff16633f199b40600160009054906101000a900473ffffffffffffffffffffffffffffffffffffffff166040518263ffffffff1660e01b8152600401808273ffffffffffffffffffffffffffffffffffffffff1673ffffffffffffffffffffffffffffffffffffffff16815260200191505060206040518083038186803b15801561106057600080fd5b505afa158015611074573d6000803e3d6000fd5b505050506040513d602081101561108a57600080fd5b8101908080519060200190929190505050905060008111156114735760008273ffffffffffffffffffffffffffffffffffffffff16632c3b7916600260009054906101000a900473ffffffffffffffffffffffffffffffffffffffff166040518263ffffffff1660e01b8152600401808273ffffffffffffffffffffffffffffffffffffffff1673ffffffffffffffffffffffffffffffffffffffff16815260200191505060206040518083038186803b15801561114757600080fd5b505afa15801561115b573d6000803e3d6000fd5b505050506040513d602081101561117157600080fd5b8101908080519060200190929190505050905060008373ffffffffffffffffffffffffffffffffffffffff1663dedafeae600260009054906101000a900473ffffffffffffffffffffffffffffffffffffffff166040518263ffffffff1660e01b8152600401808273ffffffffffffffffffffffffffffffffffffffff1673ffffffffffffffffffffffffffffffffffffffff16815260200191505060206040518083038186803b15801561122557600080fd5b505afa158015611239573d6000803e3d6000fd5b505050506040513d602081101561124f57600080fd5b8101908080519060200190929190505050905080821161127257600092506112a3565b82611286828461186a90919063ffffffff16565b10156112a25761129f818361186a90919063ffffffff16565b92505b5b600083111561147057600160009054906101000a900473ffffffffffffffffffffffffffffffffffffffff1673ffffffffffffffffffffffffffffffffffffffff1663870f0337600260009054906101000a900473ffffffffffffffffffffffffffffffffffffffff168589896040518563ffffffff1660e01b8152600401808573ffffffffffffffffffffffffffffffffffffffff1673ffffffffffffffffffffffffffffffffffffffff1681526020018481526020018373ffffffffffffffffffffffffffffffffffffffff1673ffffffffffffffffffffffffffffffffffffffff1681526020018273ffffffffffffffffffffffffffffffffffffffff1673ffffffffffffffffffffffffffffffffffffffff168152602001945050505050602060405180830381600087803b1580156113df57600080fd5b505af11580156113f3573d6000803e3d6000fd5b505050506040513d602081101561140957600080fd5b810190808051906020019092919050505061146f576040517f08c379a00000000000000000000000000000000000000000000000000000000081526004018080602001828103825260248152602001806119be6024913960400191505060405180910390fd5b5b50505b50505050565b600160009054906101000a900473ffffffffffffffffffffffffffffffffffffffff1681565b6114a76116ac565b73ffffffffffffffffffffffffffffffffffffffff166000809054906101000a900473ffffffffffffffffffffffffffffffffffffffff1673ffffffffffffffffffffffffffffffffffffffff1614611568576040517f08c379a00000000000000000000000000000000000000000000000000000000081526004018080602001828103825260208152602001807f4f776e61626c653a2063616c6c6572206973206e6f7420746865206f776e657281525060200191505060405180910390fd5b600073ffffffffffffffffffffffffffffffffffffffff168173ffffffffffffffffffffffffffffffffffffffff1614156115ee576040517f08c379a00000000000000000000000000000000000000000000000000000000081526004018080602001828103825260268152602001806119756026913960400191505060405180910390fd5b8073ffffffffffffffffffffffffffffffffffffffff166000809054906101000a900473ffffffffffffffffffffffffffffffffffffffff1673ffffffffffffffffffffffffffffffffffffffff167f8be0079c531659141344cd1fd0a4f28419497f9722a3daafe3b4186f6b6457e060405160405180910390a3806000806101000a81548173ffffffffffffffffffffffffffffffffffffffff021916908373ffffffffffffffffffffffffffffffffffffffff16021790555050565b600033905090565b600061ce1073ffffffffffffffffffffffffffffffffffffffff1663dcf0aaed60405160200180807f456c656374696f6e0000000000000000000000000000000000000000000000008152506008019050604051602081830303815290604052805190602001206040518263ffffffff1660e01b81526004018082815260200191505060206040518083038186803b15801561174f57600080fd5b505afa158015611763573d6000803e3d6000fd5b505050506040513d602081101561177957600080fd5b8101908080519060200190929190505050905090565b600061ce1073ffffffffffffffffffffffffffffffffffffffff1663dcf0aaed60405160200180807f4c6f636b6564476f6c6400000000000000000000000000000000000000000000815250600a019050604051602081830303815290604052805190602001206040518263ffffffff1660e01b81526004018082815260200191505060206040518083038186803b15801561182a57600080fd5b505afa15801561183e573d6000803e3d6000fd5b505050506040513d602081101561185457600080fd5b8101908080519060200190929190505050905090565b60006118ac83836040518060400160405280601e81526020017f536166654d6174683a207375627472616374696f6e206f766572666c6f7700008152506118b4565b905092915050565b6000838311158290611961576040517f08c379a00000000000000000000000000000000000000000000000000000000081526004018080602001828103825283818151815260200191508051906020019080838360005b8381101561192657808201518184015260208101905061190b565b50505050905090810190601f1680156119535780820380516001836020036101000a031916815260200191505b509250505060405180910390fd5b506000838503905080915050939250505056fe4f776e61626c653a206e6577206f776e657220697320746865207a65726f20616464726573737265766f6b6541637469766520666f7220766f7465642067726f7570206661696c656463617374696e6720766f74657320666f7220766f7465642067726f7570206661696c65647265766f6b6550656e64696e6720666f7220766f7465642067726f7570206661696c6564a26469706673582212202963e27c83e8515bdf20c215cb35d0f451a18669bac100311b6605bf0a09794764736f6c63430006080033",
  "immutableReferences": {},
  "source": "//SPDX-License-Identifier: MIT\npragma solidity 0.6.8;\n\nimport \"@openzeppelin/contracts/access/Ownable.sol\";\nimport \"@openzeppelin/contracts/math/SafeMath.sol\";\n\nimport \"./UsingRegistry.sol\";\nimport \"./interfaces/IElection.sol\";\nimport \"./interfaces/IVoterProxy.sol\";\n\n/// @title SavingsCELO voter contract.\n/// @notice VoterV1 supports voting for only one group a time.\ncontract SavingsCELOVoterV1 is Ownable, UsingRegistry {\n\tusing SafeMath for uint256;\n\n\tIVoterProxy public _proxy;\n\taddress public votedGroup;\n\n\tconstructor (address savingsCELO) public {\n\t\t_proxy = IVoterProxy(savingsCELO);\n\t}\n\n\t/// @dev Changes voted group. This call revokes all current votes for currently voted group.\n\t/// votedGroupIndex is the index of votedGroup in SavingsCELO votes. This is expected to be 0 since\n\t/// SavingsCELO is supposed to be voting only for one group.\n\t///\n\t/// lesser.../greater... parameters are needed to perform Election.revokePending and Election.revokeActive\n\t/// calls. See Election contract for more details.\n\t///\n\t/// NOTE: changeVotedGroup can be used to clear out all votes even if SavingsCELO is voting for multiple\n\t/// groups. This can be useful if SavingsCELO is in a weird voting state before VoterV1 contract is installed\n\t/// as the voter contract.\n\tfunction changeVotedGroup(\n\t\taddress newGroup,\n\t\tuint256 votedGroupIndex,\n\t\taddress lesserAfterPendingRevoke,\n\t\taddress greaterAfterPendingRevoke,\n\t\taddress lesserAfterActiveRevoke,\n\t\taddress greaterAfterActiveRevoke) onlyOwner external {\n\t\tif (votedGroup != address(0)) {\n\t\t\tIElection _election = getElection();\n\t\t\tuint256 pendingVotes = _election.getPendingVotesForGroupByAccount(votedGroup, address(_proxy));\n\t\t\tuint256 activeVotes = _election.getActiveVotesForGroupByAccount(votedGroup, address(_proxy));\n\t\t\tif (pendingVotes > 0) {\n\t\t\t\trequire(\n\t\t\t\t\t_proxy.proxyRevokePending(\n\t\t\t\t\t\tvotedGroup, pendingVotes, lesserAfterPendingRevoke, greaterAfterPendingRevoke, votedGroupIndex),\n\t\t\t\t\t\"revokePending for voted group failed\");\n\t\t\t}\n\t\t\tif (activeVotes > 0) {\n\t\t\t\trequire(\n\t\t\t\t\t_proxy.proxyRevokeActive(\n\t\t\t\t\t\tvotedGroup, activeVotes, lesserAfterActiveRevoke, greaterAfterActiveRevoke, votedGroupIndex),\n\t\t\t\t\t\"revokeActive for voted group failed\");\n\t\t\t}\n\t\t}\n\t\tvotedGroup = newGroup;\n\t}\n\n\t/// @dev Activates any activatable votes and also casts new votes if there is new locked CELO in\n\t/// SavingsCELO contract. Anyone can call this method, and it is expected to be called regularly to make\n\t/// sure all new locked CELO is deployed to earn rewards.\n\tfunction activateAndVote(\n\t\taddress lesser,\n\t\taddress greater\n\t) external {\n\t\trequire(votedGroup != address(0), \"voted group is not set\");\n\t\tIElection _election = getElection();\n\t\tif (_election.hasActivatablePendingVotes(address(_proxy), votedGroup)) {\n\t\t\trequire(\n\t\t\t\t_proxy.proxyActivate(votedGroup),\n\t\t\t\t\"activate for voted group failed\");\n\t\t}\n\t\tuint256 toVote = getLockedGold().getAccountNonvotingLockedGold(address(_proxy));\n\t\tif (toVote > 0) {\n\t\t\tuint256 maxVotes = _election.getNumVotesReceivable(votedGroup);\n\t\t\tuint256 totalVotes = _election.getTotalVotesForGroup(votedGroup);\n\t\t\tif (maxVotes <= totalVotes) {\n\t\t\t\ttoVote = 0;\n\t\t\t} else if (maxVotes.sub(totalVotes) < toVote) {\n\t\t\t\ttoVote = maxVotes.sub(totalVotes);\n\t\t\t}\n\t\t\tif (toVote > 0) {\n\t\t\t\trequire(\n\t\t\t\t\t_proxy.proxyVote(votedGroup, toVote, lesser, greater),\n\t\t\t\t\t\"casting votes for voted group failed\");\n\t\t\t}\n\t\t}\n\t}\n}\n",
  "sourcePath": "/home/home/rewards-studio/contracts/SavingsCELOVoterV1.sol",
  "compiler": {
    "name": "solc",
    "version": "0.6.8+commit.0bbfe453.Emscripten.clang"
  },
  "schemaVersion": "3.4.1",
  "updatedAt": "2021-07-15T21:01:57.780Z",
  "devdoc": {
    "methods": {
      "activateAndVote(address,address)": {
        "details": "Activates any activatable votes and also casts new votes if there is new locked CELO in SavingsCELO contract. Anyone can call this method, and it is expected to be called regularly to make sure all new locked CELO is deployed to earn rewards."
      },
      "changeVotedGroup(address,uint256,address,address,address,address)": {
        "details": "Changes voted group. This call revokes all current votes for currently voted group. votedGroupIndex is the index of votedGroup in SavingsCELO votes. This is expected to be 0 since SavingsCELO is supposed to be voting only for one group. \t/// lesser.../greater... parameters are needed to perform Election.revokePending and Election.revokeActive calls. See Election contract for more details. \t/// NOTE: changeVotedGroup can be used to clear out all votes even if SavingsCELO is voting for multiple groups. This can be useful if SavingsCELO is in a weird voting state before VoterV1 contract is installed as the voter contract."
      },
      "owner()": {
        "details": "Returns the address of the current owner."
      },
      "renounceOwnership()": {
        "details": "Leaves the contract without owner. It will not be possible to call `onlyOwner` functions anymore. Can only be called by the current owner.     * NOTE: Renouncing ownership will leave the contract without an owner, thereby removing any functionality that is only available to the owner."
      },
      "transferOwnership(address)": {
        "details": "Transfers ownership of the contract to a new account (`newOwner`). Can only be called by the current owner."
      }
    },
    "title": "SavingsCELO voter contract."
  },
  "userdoc": {
    "methods": {},
    "notice": "VoterV1 supports voting for only one group a time."
  }
}