{
  "contractName": "SavingsCELO",
  "abi": [
    {
      "inputs": [
        {
          "internalType": "string",
          "name": "_name",
          "type": "string"
        },
        {
          "internalType": "string",
          "name": "_symbol",
          "type": "string"
        }
      ],
      "stateMutability": "nonpayable",
      "type": "constructor"
    },
    {
      "anonymous": false,
      "inputs": [
        {
          "indexed": true,
          "internalType": "address",
          "name": "owner",
          "type": "address"
        },
        {
          "indexed": true,
          "internalType": "address",
          "name": "spender",
          "type": "address"
        },
        {
          "indexed": false,
          "internalType": "uint256",
          "name": "value",
          "type": "uint256"
        }
      ],
      "name": "Approval",
      "type": "event"
    },
    {
      "anonymous": false,
      "inputs": [
        {
          "indexed": true,
          "internalType": "address",
          "name": "from",
          "type": "address"
        },
        {
          "indexed": false,
          "internalType": "uint256",
          "name": "celoAmount",
          "type": "uint256"
        },
        {
          "indexed": false,
          "internalType": "uint256",
          "name": "savingsAmount",
          "type": "uint256"
        }
      ],
      "name": "Deposited",
      "type": "event"
    },
    {
      "anonymous": false,
      "inputs": [
        {
          "indexed": true,
          "internalType": "address",
          "name": "previousOwner",
          "type": "address"
        },
        {
          "indexed": true,
          "internalType": "address",
          "name": "newOwner",
          "type": "address"
        }
      ],
      "name": "OwnershipTransferred",
      "type": "event"
    },
    {
      "anonymous": false,
      "inputs": [
        {
          "indexed": true,
          "internalType": "address",
          "name": "from",
          "type": "address"
        },
        {
          "indexed": true,
          "internalType": "address",
          "name": "to",
          "type": "address"
        },
        {
          "indexed": false,
          "internalType": "uint256",
          "name": "value",
          "type": "uint256"
        }
      ],
      "name": "Transfer",
      "type": "event"
    },
    {
      "anonymous": false,
      "inputs": [
        {
          "indexed": true,
          "internalType": "address",
          "name": "previousVoter",
          "type": "address"
        },
        {
          "indexed": true,
          "internalType": "address",
          "name": "newVoter",
          "type": "address"
        }
      ],
      "name": "VoterAuthorized",
      "type": "event"
    },
    {
      "anonymous": false,
      "inputs": [
        {
          "indexed": true,
          "internalType": "address",
          "name": "from",
          "type": "address"
        },
        {
          "indexed": false,
          "internalType": "uint256",
          "name": "celoAmount",
          "type": "uint256"
        },
        {
          "indexed": false,
          "internalType": "uint256",
          "name": "savingsAmount",
          "type": "uint256"
        }
      ],
      "name": "WithdrawCanceled",
      "type": "event"
    },
    {
      "anonymous": false,
      "inputs": [
        {
          "indexed": true,
          "internalType": "address",
          "name": "from",
          "type": "address"
        },
        {
          "indexed": false,
          "internalType": "uint256",
          "name": "celoAmount",
          "type": "uint256"
        }
      ],
      "name": "WithdrawFinished",
      "type": "event"
    },
    {
      "anonymous": false,
      "inputs": [
        {
          "indexed": true,
          "internalType": "address",
          "name": "from",
          "type": "address"
        },
        {
          "indexed": false,
          "internalType": "uint256",
          "name": "savingsAmount",
          "type": "uint256"
        },
        {
          "indexed": false,
          "internalType": "uint256",
          "name": "celoAmount",
          "type": "uint256"
        }
      ],
      "name": "WithdrawStarted",
      "type": "event"
    },
    {
      "inputs": [],
      "name": "_voter",
      "outputs": [
        {
          "internalType": "address",
          "name": "",
          "type": "address"
        }
      ],
      "stateMutability": "view",
      "type": "function"
    },
    {
      "inputs": [
        {
          "internalType": "address",
          "name": "owner",
          "type": "address"
        },
        {
          "internalType": "address",
          "name": "spender",
          "type": "address"
        }
      ],
      "name": "allowance",
      "outputs": [
        {
          "internalType": "uint256",
          "name": "",
          "type": "uint256"
        }
      ],
      "stateMutability": "view",
      "type": "function"
    },
    {
      "inputs": [
        {
          "internalType": "address",
          "name": "spender",
          "type": "address"
        },
        {
          "internalType": "uint256",
          "name": "amount",
          "type": "uint256"
        }
      ],
      "name": "approve",
      "outputs": [
        {
          "internalType": "bool",
          "name": "",
          "type": "bool"
        }
      ],
      "stateMutability": "nonpayable",
      "type": "function"
    },
    {
      "inputs": [
        {
          "internalType": "address",
          "name": "account",
          "type": "address"
        }
      ],
      "name": "balanceOf",
      "outputs": [
        {
          "internalType": "uint256",
          "name": "",
          "type": "uint256"
        }
      ],
      "stateMutability": "view",
      "type": "function"
    },
    {
      "inputs": [],
      "name": "decimals",
      "outputs": [
        {
          "internalType": "uint8",
          "name": "",
          "type": "uint8"
        }
      ],
      "stateMutability": "view",
      "type": "function"
    },
    {
      "inputs": [
        {
          "internalType": "address",
          "name": "spender",
          "type": "address"
        },
        {
          "internalType": "uint256",
          "name": "subtractedValue",
          "type": "uint256"
        }
      ],
      "name": "decreaseAllowance",
      "outputs": [
        {
          "internalType": "bool",
          "name": "",
          "type": "bool"
        }
      ],
      "stateMutability": "nonpayable",
      "type": "function"
    },
    {
      "inputs": [
        {
          "internalType": "address",
          "name": "spender",
          "type": "address"
        },
        {
          "internalType": "uint256",
          "name": "addedValue",
          "type": "uint256"
        }
      ],
      "name": "increaseAllowance",
      "outputs": [
        {
          "internalType": "bool",
          "name": "",
          "type": "bool"
        }
      ],
      "stateMutability": "nonpayable",
      "type": "function"
    },
    {
      "inputs": [],
      "name": "name",
      "outputs": [
        {
          "internalType": "string",
          "name": "",
          "type": "string"
        }
      ],
      "stateMutability": "view",
      "type": "function"
    },
    {
      "inputs": [],
      "name": "owner",
      "outputs": [
        {
          "internalType": "address",
          "name": "",
          "type": "address"
        }
      ],
      "stateMutability": "view",
      "type": "function"
    },
    {
      "inputs": [],
      "name": "renounceOwnership",
      "outputs": [],
      "stateMutability": "nonpayable",
      "type": "function"
    },
    {
      "inputs": [],
      "name": "symbol",
      "outputs": [
        {
          "internalType": "string",
          "name": "",
          "type": "string"
        }
      ],
      "stateMutability": "view",
      "type": "function"
    },
    {
      "inputs": [],
      "name": "totalSupply",
      "outputs": [
        {
          "internalType": "uint256",
          "name": "",
          "type": "uint256"
        }
      ],
      "stateMutability": "view",
      "type": "function"
    },
    {
      "inputs": [
        {
          "internalType": "address",
          "name": "recipient",
          "type": "address"
        },
        {
          "internalType": "uint256",
          "name": "amount",
          "type": "uint256"
        }
      ],
      "name": "transfer",
      "outputs": [
        {
          "internalType": "bool",
          "name": "",
          "type": "bool"
        }
      ],
      "stateMutability": "nonpayable",
      "type": "function"
    },
    {
      "inputs": [
        {
          "internalType": "address",
          "name": "sender",
          "type": "address"
        },
        {
          "internalType": "address",
          "name": "recipient",
          "type": "address"
        },
        {
          "internalType": "uint256",
          "name": "amount",
          "type": "uint256"
        }
      ],
      "name": "transferFrom",
      "outputs": [
        {
          "internalType": "bool",
          "name": "",
          "type": "bool"
        }
      ],
      "stateMutability": "nonpayable",
      "type": "function"
    },
    {
      "inputs": [
        {
          "internalType": "address",
          "name": "newOwner",
          "type": "address"
        }
      ],
      "name": "transferOwnership",
      "outputs": [],
      "stateMutability": "nonpayable",
      "type": "function"
    },
    {
      "stateMutability": "payable",
      "type": "receive"
    },
    {
      "inputs": [
        {
          "internalType": "address",
          "name": "signer",
          "type": "address"
        },
        {
          "internalType": "uint8",
          "name": "v",
          "type": "uint8"
        },
        {
          "internalType": "bytes32",
          "name": "r",
          "type": "bytes32"
        },
        {
          "internalType": "bytes32",
          "name": "s",
          "type": "bytes32"
        }
      ],
      "name": "authorizeVoteSigner",
      "outputs": [],
      "stateMutability": "nonpayable",
      "type": "function"
    },
    {
      "inputs": [
        {
          "internalType": "address",
          "name": "voter",
          "type": "address"
        }
      ],
      "name": "authorizeVoterProxy",
      "outputs": [],
      "stateMutability": "nonpayable",
      "type": "function"
    },
    {
      "inputs": [
        {
          "internalType": "address",
          "name": "group",
          "type": "address"
        },
        {
          "internalType": "uint256",
          "name": "value",
          "type": "uint256"
        },
        {
          "internalType": "address",
          "name": "lesser",
          "type": "address"
        },
        {
          "internalType": "address",
          "name": "greater",
          "type": "address"
        }
      ],
      "name": "proxyVote",
      "outputs": [
        {
          "internalType": "bool",
          "name": "",
          "type": "bool"
        }
      ],
      "stateMutability": "nonpayable",
      "type": "function"
    },
    {
      "inputs": [
        {
          "internalType": "address",
          "name": "group",
          "type": "address"
        }
      ],
      "name": "proxyActivate",
      "outputs": [
        {
          "internalType": "bool",
          "name": "",
          "type": "bool"
        }
      ],
      "stateMutability": "nonpayable",
      "type": "function"
    },
    {
      "inputs": [
        {
          "internalType": "address",
          "name": "group",
          "type": "address"
        },
        {
          "internalType": "uint256",
          "name": "value",
          "type": "uint256"
        },
        {
          "internalType": "address",
          "name": "lesser",
          "type": "address"
        },
        {
          "internalType": "address",
          "name": "greater",
          "type": "address"
        },
        {
          "internalType": "uint256",
          "name": "index",
          "type": "uint256"
        }
      ],
      "name": "proxyRevokeActive",
      "outputs": [
        {
          "internalType": "bool",
          "name": "",
          "type": "bool"
        }
      ],
      "stateMutability": "nonpayable",
      "type": "function"
    },
    {
      "inputs": [
        {
          "internalType": "address",
          "name": "group",
          "type": "address"
        },
        {
          "internalType": "uint256",
          "name": "value",
          "type": "uint256"
        },
        {
          "internalType": "address",
          "name": "lesser",
          "type": "address"
        },
        {
          "internalType": "address",
          "name": "greater",
          "type": "address"
        },
        {
          "internalType": "uint256",
          "name": "index",
          "type": "uint256"
        }
      ],
      "name": "proxyRevokePending",
      "outputs": [
        {
          "internalType": "bool",
          "name": "",
          "type": "bool"
        }
      ],
      "stateMutability": "nonpayable",
      "type": "function"
    },
    {
      "inputs": [
        {
          "internalType": "uint256",
          "name": "proposalId",
          "type": "uint256"
        },
        {
          "internalType": "uint256",
          "name": "index",
          "type": "uint256"
        },
        {
          "internalType": "enum Governance.VoteValue",
          "name": "value",
          "type": "uint8"
        }
      ],
      "name": "proxyGovernanceVote",
      "outputs": [
        {
          "internalType": "bool",
          "name": "",
          "type": "bool"
        }
      ],
      "stateMutability": "nonpayable",
      "type": "function"
    },
    {
      "inputs": [
        {
          "internalType": "uint256",
          "name": "proposalId",
          "type": "uint256"
        },
        {
          "internalType": "uint256",
          "name": "lesser",
          "type": "uint256"
        },
        {
          "internalType": "uint256",
          "name": "greater",
          "type": "uint256"
        }
      ],
      "name": "proxyGovernanceUpvote",
      "outputs": [
        {
          "internalType": "bool",
          "name": "",
          "type": "bool"
        }
      ],
      "stateMutability": "nonpayable",
      "type": "function"
    },
    {
      "inputs": [
        {
          "internalType": "uint256",
          "name": "lesser",
          "type": "uint256"
        },
        {
          "internalType": "uint256",
          "name": "greater",
          "type": "uint256"
        }
      ],
      "name": "proxyGovernanceRevokeUpvote",
      "outputs": [
        {
          "internalType": "bool",
          "name": "",
          "type": "bool"
        }
      ],
      "stateMutability": "nonpayable",
      "type": "function"
    },
    {
      "inputs": [],
      "name": "deposit",
      "outputs": [
        {
          "internalType": "uint256",
          "name": "toMint",
          "type": "uint256"
        }
      ],
      "stateMutability": "payable",
      "type": "function"
    },
    {
      "inputs": [
        {
          "internalType": "uint256",
          "name": "savingsAmount",
          "type": "uint256"
        },
        {
          "internalType": "address",
          "name": "lesserAfterPendingRevoke",
          "type": "address"
        },
        {
          "internalType": "address",
          "name": "greaterAfterPendingRevoke",
          "type": "address"
        },
        {
          "internalType": "address",
          "name": "lesserAfterActiveRevoke",
          "type": "address"
        },
        {
          "internalType": "address",
          "name": "greaterAfterActiveRevoke",
          "type": "address"
        }
      ],
      "name": "withdrawStart",
      "outputs": [
        {
          "internalType": "uint256",
          "name": "toWithdraw",
          "type": "uint256"
        }
      ],
      "stateMutability": "nonpayable",
      "type": "function"
    },
    {
      "inputs": [
        {
          "internalType": "uint256",
          "name": "index",
          "type": "uint256"
        },
        {
          "internalType": "uint256",
          "name": "indexGlobal",
          "type": "uint256"
        }
      ],
      "name": "withdrawFinish",
      "outputs": [
        {
          "internalType": "uint256",
          "name": "",
          "type": "uint256"
        }
      ],
      "stateMutability": "nonpayable",
      "type": "function"
    },
    {
      "inputs": [
        {
          "internalType": "uint256",
          "name": "index",
          "type": "uint256"
        },
        {
          "internalType": "uint256",
          "name": "indexGlobal",
          "type": "uint256"
        }
      ],
      "name": "withdrawCancel",
      "outputs": [
        {
          "internalType": "uint256",
          "name": "toMint",
          "type": "uint256"
        }
      ],
      "stateMutability": "nonpayable",
      "type": "function"
    },
    {
      "inputs": [
        {
          "internalType": "address",
          "name": "addr",
          "type": "address"
        }
      ],
      "name": "pendingWithdrawals",
      "outputs": [
        {
          "internalType": "uint256[]",
          "name": "",
          "type": "uint256[]"
        },
        {
          "internalType": "uint256[]",
          "name": "",
          "type": "uint256[]"
        }
      ],
      "stateMutability": "view",
      "type": "function"
    },
    {
      "inputs": [
        {
          "internalType": "uint256",
          "name": "savingsAmount",
          "type": "uint256"
        }
      ],
      "name": "savingsToCELO",
      "outputs": [
        {
          "internalType": "uint256",
          "name": "",
          "type": "uint256"
        }
      ],
      "stateMutability": "view",
      "type": "function"
    },
    {
      "inputs": [
        {
          "internalType": "uint256",
          "name": "celoAmount",
          "type": "uint256"
        }
      ],
      "name": "celoToSavings",
      "outputs": [
        {
          "internalType": "uint256",
          "name": "",
          "type": "uint256"
        }
      ],
      "stateMutability": "view",
      "type": "function"
    }
  ],
  "bytecode": "0x60806040523480156200001157600080fd5b5060405162005ae138038062005ae1833981810160405260408110156200003757600080fd5b81019080805160405193929190846401000000008211156200005857600080fd5b838201915060208201858111156200006f57600080fd5b82518660018202830111640100000000821117156200008d57600080fd5b8083526020830192505050908051906020019080838360005b83811015620000c3578082015181840152602081019050620000a6565b50505050905090810190601f168015620000f15780820380516001836020036101000a031916815260200191505b50604052602001805160405193929190846401000000008211156200011557600080fd5b838201915060208201858111156200012c57600080fd5b82518660018202830111640100000000821117156200014a57600080fd5b8083526020830192505050908051906020019080838360005b838110156200018057808201518184015260208101905062000163565b50505050905090810190601f168015620001ae5780820380516001836020036101000a031916815260200191505b5060405250505081818160039080519060200190620001cf929190620004ae565b508060049080519060200190620001e8929190620004ae565b506012600560006101000a81548160ff021916908360ff1602179055505050600062000219620003c860201b60201c565b905080600560016101000a81548173ffffffffffffffffffffffffffffffffffffffff021916908373ffffffffffffffffffffffffffffffffffffffff1602179055508073ffffffffffffffffffffffffffffffffffffffff16600073ffffffffffffffffffffffffffffffffffffffff167f8be0079c531659141344cd1fd0a4f28419497f9722a3daafe3b4186f6b6457e060405160405180910390a350620002c8620003d060201b60201c565b73ffffffffffffffffffffffffffffffffffffffff16639dca362f6040518163ffffffff1660e01b8152600401602060405180830381600087803b1580156200031057600080fd5b505af115801562000325573d6000803e3d6000fd5b505050506040513d60208110156200033c57600080fd5b8101908080519060200190929190505050620003c0576040517f08c379a00000000000000000000000000000000000000000000000000000000081526004018080602001828103825260148152602001807f6372656174654163636f756e74206661696c656400000000000000000000000081525060200191505060405180910390fd5b50506200055d565b600033905090565b600061ce1073ffffffffffffffffffffffffffffffffffffffff1663dcf0aaed60405160200180807f4163636f756e74730000000000000000000000000000000000000000000000008152506008019050604051602081830303815290604052805190602001206040518263ffffffff1660e01b81526004018082815260200191505060206040518083038186803b1580156200046c57600080fd5b505afa15801562000481573d6000803e3d6000fd5b505050506040513d60208110156200049857600080fd5b8101908080519060200190929190505050905090565b828054600181600116156101000203166002900490600052602060002090601f016020900481019282601f10620004f157805160ff191683800117855562000522565b8280016001018555821562000522579182015b828111156200052157825182559160200191906001019062000504565b5b50905062000531919062000535565b5090565b6200055a91905b80821115620005565760008160009055506001016200053c565b5090565b90565b615574806200056d6000396000f3fe6080604052600436106101dc5760003560e01c80636479e85a11610102578063a457c2d711610095578063dd62ed3e11610064578063dd62ed3e14610d58578063ec3e240f14610ddd578063f2fde38b14610e36578063f3f4370314610e87576101e3565b8063a457c2d714610bea578063a9059cbb14610c5d578063bb6c852314610cd0578063d0e30db014610d3a576101e3565b806376c41bff116100d157806376c41bff14610a01578063870f033714610a505780638da5cb5b14610b0357806395d89b4114610b5a576101e3565b80636479e85a1461087757806366282e5d1461093457806370a0823114610985578063715018a6146109ea576101e3565b8063395093511161017a5780634550b565116101495780634550b5651461069957806347ac0cb6146106f25780635cefc85e146107595780635d55a90b146107a8576101e3565b806339509351146104a05780633db9b42a146105135780634282ee6d1461056a57806342dcfe9c146105dc576101e3565b806318160ddd116101b657806318160ddd14610354578063211db49b1461037f57806323b872dd146103dc578063313ce5671461046f576101e3565b806303c4181d146101e857806306fdde0314610251578063095ea7b3146102e1576101e3565b366101e357005b600080fd5b3480156101f457600080fd5b506102376004803603602081101561020b57600080fd5b81019080803573ffffffffffffffffffffffffffffffffffffffff169060200190929190505050610f75565b604051808215151515815260200191505060405180910390f35b34801561025d57600080fd5b506102666110e5565b6040518080602001828103825283818151815260200191508051906020019080838360005b838110156102a657808201518184015260208101905061028b565b50505050905090810190601f1680156102d35780820380516001836020036101000a031916815260200191505b509250505060405180910390f35b3480156102ed57600080fd5b5061033a6004803603604081101561030457600080fd5b81019080803573ffffffffffffffffffffffffffffffffffffffff16906020019092919080359060200190929190505050611187565b604051808215151515815260200191505060405180910390f35b34801561036057600080fd5b506103696111a5565b6040518082815260200191505060405180910390f35b34801561038b57600080fd5b506103c2600480360360408110156103a257600080fd5b8101908080359060200190929190803590602001909291905050506111af565b604051808215151515815260200191505060405180910390f35b3480156103e857600080fd5b50610455600480360360608110156103ff57600080fd5b81019080803573ffffffffffffffffffffffffffffffffffffffff169060200190929190803573ffffffffffffffffffffffffffffffffffffffff169060200190929190803590602001909291905050506112fc565b604051808215151515815260200191505060405180910390f35b34801561047b57600080fd5b506104846113d5565b604051808260ff1660ff16815260200191505060405180910390f35b3480156104ac57600080fd5b506104f9600480360360408110156104c357600080fd5b81019080803573ffffffffffffffffffffffffffffffffffffffff169060200190929190803590602001909291905050506113ec565b604051808215151515815260200191505060405180910390f35b34801561051f57600080fd5b5061052861149f565b604051808273ffffffffffffffffffffffffffffffffffffffff1673ffffffffffffffffffffffffffffffffffffffff16815260200191505060405180910390f35b34801561057657600080fd5b506105da6004803603608081101561058d57600080fd5b81019080803573ffffffffffffffffffffffffffffffffffffffff169060200190929190803560ff16906020019092919080359060200190929190803590602001909291905050506114c5565b005b3480156105e857600080fd5b5061067f600480360360a08110156105ff57600080fd5b81019080803573ffffffffffffffffffffffffffffffffffffffff16906020019092919080359060200190929190803573ffffffffffffffffffffffffffffffffffffffff169060200190929190803573ffffffffffffffffffffffffffffffffffffffff16906020019092919080359060200190929190505050611651565b604051808215151515815260200191505060405180910390f35b3480156106a557600080fd5b506106dc600480360360408110156106bc57600080fd5b81019080803590602001909291908035906020019092919050505061183d565b6040518082815260200191505060405180910390f35b3480156106fe57600080fd5b5061073f6004803603606081101561071557600080fd5b810190808035906020019092919080359060200190929190803590602001909291905050506119e4565b604051808215151515815260200191505060405180910390f35b34801561076557600080fd5b506107926004803603602081101561077c57600080fd5b8101908080359060200190929190505050611b3a565b6040518082815260200191505060405180910390f35b3480156107b457600080fd5b50610861600480360360a08110156107cb57600080fd5b8101908080359060200190929190803573ffffffffffffffffffffffffffffffffffffffff169060200190929190803573ffffffffffffffffffffffffffffffffffffffff169060200190929190803573ffffffffffffffffffffffffffffffffffffffff169060200190929190803573ffffffffffffffffffffffffffffffffffffffff169060200190929190505050611be0565b6040518082815260200191505060405180910390f35b34801561088357600080fd5b5061091a600480360360a081101561089a57600080fd5b81019080803573ffffffffffffffffffffffffffffffffffffffff16906020019092919080359060200190929190803573ffffffffffffffffffffffffffffffffffffffff169060200190929190803573ffffffffffffffffffffffffffffffffffffffff16906020019092919080359060200190929190505050612203565b604051808215151515815260200191505060405180910390f35b34801561094057600080fd5b506109836004803603602081101561095757600080fd5b81019080803573ffffffffffffffffffffffffffffffffffffffff1690602001909291905050506123ef565b005b34801561099157600080fd5b506109d4600480360360208110156109a857600080fd5b81019080803573ffffffffffffffffffffffffffffffffffffffff169060200190929190505050612579565b6040518082815260200191505060405180910390f35b3480156109f657600080fd5b506109ff6125c1565b005b348015610a0d57600080fd5b50610a3a60048036036020811015610a2457600080fd5b810190808035906020019092919050505061274c565b6040518082815260200191505060405180910390f35b348015610a5c57600080fd5b50610ae960048036036080811015610a7357600080fd5b81019080803573ffffffffffffffffffffffffffffffffffffffff16906020019092919080359060200190929190803573ffffffffffffffffffffffffffffffffffffffff169060200190929190803573ffffffffffffffffffffffffffffffffffffffff169060200190929190505050612820565b604051808215151515815260200191505060405180910390f35b348015610b0f57600080fd5b50610b18612a03565b604051808273ffffffffffffffffffffffffffffffffffffffff1673ffffffffffffffffffffffffffffffffffffffff16815260200191505060405180910390f35b348015610b6657600080fd5b50610b6f612a2d565b6040518080602001828103825283818151815260200191508051906020019080838360005b83811015610baf578082015181840152602081019050610b94565b50505050905090810190601f168015610bdc5780820380516001836020036101000a031916815260200191505b509250505060405180910390f35b348015610bf657600080fd5b50610c4360048036036040811015610c0d57600080fd5b81019080803573ffffffffffffffffffffffffffffffffffffffff16906020019092919080359060200190929190505050612acf565b604051808215151515815260200191505060405180910390f35b348015610c6957600080fd5b50610cb660048036036040811015610c8057600080fd5b81019080803573ffffffffffffffffffffffffffffffffffffffff16906020019092919080359060200190929190505050612b9c565b604051808215151515815260200191505060405180910390f35b348015610cdc57600080fd5b50610d2060048036036060811015610cf357600080fd5b810190808035906020019092919080359060200190929190803560ff169060200190929190505050612bba565b604051808215151515815260200191505060405180910390f35b610d42612d1e565b6040518082815260200191505060405180910390f35b348015610d6457600080fd5b50610dc760048036036040811015610d7b57600080fd5b81019080803573ffffffffffffffffffffffffffffffffffffffff169060200190929190803573ffffffffffffffffffffffffffffffffffffffff169060200190929190505050612eaf565b6040518082815260200191505060405180910390f35b348015610de957600080fd5b50610e2060048036036040811015610e0057600080fd5b810190808035906020019092919080359060200190929190505050612f36565b6040518082815260200191505060405180910390f35b348015610e4257600080fd5b50610e8560048036036020811015610e5957600080fd5b81019080803573ffffffffffffffffffffffffffffffffffffffff169060200190929190505050613141565b005b348015610e9357600080fd5b50610ed660048036036020811015610eaa57600080fd5b81019080803573ffffffffffffffffffffffffffffffffffffffff169060200190929190505050613351565b604051808060200180602001838103835285818151815260200191508051906020019060200280838360005b83811015610f1d578082015181840152602081019050610f02565b50505050905001838103825284818151815260200191508051906020019060200280838360005b83811015610f5f578082015181840152602081019050610f44565b5050505090500194505050505060405180910390f35b60003373ffffffffffffffffffffffffffffffffffffffff16600660009054906101000a900473ffffffffffffffffffffffffffffffffffffffff1673ffffffffffffffffffffffffffffffffffffffff161461101d576040517f08c379a00000000000000000000000000000000000000000000000000000000081526004018080602001828103825260248152602001806152be6024913960400191505060405180910390fd5b6110256134db565b73ffffffffffffffffffffffffffffffffffffffff16631c5a9d9c836040518263ffffffff1660e01b8152600401808273ffffffffffffffffffffffffffffffffffffffff1673ffffffffffffffffffffffffffffffffffffffff168152602001915050602060405180830381600087803b1580156110a357600080fd5b505af11580156110b7573d6000803e3d6000fd5b505050506040513d60208110156110cd57600080fd5b81019080805190602001909291905050509050919050565b606060038054600181600116156101000203166002900480601f01602080910402602001604051908101604052809291908181526020018280546001816001161561010002031660029004801561117d5780601f106111525761010080835404028352916020019161117d565b820191906000526020600020905b81548152906001019060200180831161116057829003601f168201915b5050505050905090565b600061119b6111946135b6565b84846135be565b6001905092915050565b6000600254905090565b60003373ffffffffffffffffffffffffffffffffffffffff16600660009054906101000a900473ffffffffffffffffffffffffffffffffffffffff1673ffffffffffffffffffffffffffffffffffffffff1614611257576040517f08c379a00000000000000000000000000000000000000000000000000000000081526004018080602001828103825260248152602001806152be6024913960400191505060405180910390fd5b61125f6137b5565b73ffffffffffffffffffffffffffffffffffffffff1663af108a0e84846040518363ffffffff1660e01b81526004018083815260200182815260200192505050602060405180830381600087803b1580156112b957600080fd5b505af11580156112cd573d6000803e3d6000fd5b505050506040513d60208110156112e357600080fd5b8101908080519060200190929190505050905092915050565b6000611309848484613890565b6113ca846113156135b6565b6113c5856040518060600160405280602881526020016153e460289139600160008b73ffffffffffffffffffffffffffffffffffffffff1673ffffffffffffffffffffffffffffffffffffffff168152602001908152602001600020600061137b6135b6565b73ffffffffffffffffffffffffffffffffffffffff1673ffffffffffffffffffffffffffffffffffffffff16815260200190815260200160002054613b519092919063ffffffff16565b6135be565b600190509392505050565b6000600560009054906101000a900460ff16905090565b60006114956113f96135b6565b84611490856001600061140a6135b6565b73ffffffffffffffffffffffffffffffffffffffff1673ffffffffffffffffffffffffffffffffffffffff16815260200190815260200160002060008973ffffffffffffffffffffffffffffffffffffffff1673ffffffffffffffffffffffffffffffffffffffff16815260200190815260200160002054613c1190919063ffffffff16565b6135be565b6001905092915050565b600660009054906101000a900473ffffffffffffffffffffffffffffffffffffffff1681565b6114cd6135b6565b73ffffffffffffffffffffffffffffffffffffffff16600560019054906101000a900473ffffffffffffffffffffffffffffffffffffffff1673ffffffffffffffffffffffffffffffffffffffff161461158f576040517f08c379a00000000000000000000000000000000000000000000000000000000081526004018080602001828103825260208152602001807f4f776e61626c653a2063616c6c6572206973206e6f7420746865206f776e657281525060200191505060405180910390fd5b611597613c99565b73ffffffffffffffffffffffffffffffffffffffff16634282ee6d858585856040518563ffffffff1660e01b8152600401808573ffffffffffffffffffffffffffffffffffffffff1673ffffffffffffffffffffffffffffffffffffffff1681526020018460ff1660ff168152602001838152602001828152602001945050505050600060405180830381600087803b15801561163357600080fd5b505af1158015611647573d6000803e3d6000fd5b5050505050505050565b60003373ffffffffffffffffffffffffffffffffffffffff16600660009054906101000a900473ffffffffffffffffffffffffffffffffffffffff1673ffffffffffffffffffffffffffffffffffffffff16146116f9576040517f08c379a00000000000000000000000000000000000000000000000000000000081526004018080602001828103825260248152602001806152be6024913960400191505060405180910390fd5b6117016134db565b73ffffffffffffffffffffffffffffffffffffffff16639dfb608187878787876040518663ffffffff1660e01b8152600401808673ffffffffffffffffffffffffffffffffffffffff1673ffffffffffffffffffffffffffffffffffffffff1681526020018581526020018473ffffffffffffffffffffffffffffffffffffffff1673ffffffffffffffffffffffffffffffffffffffff1681526020018373ffffffffffffffffffffffffffffffffffffffff1673ffffffffffffffffffffffffffffffffffffffff16815260200182815260200195505050505050602060405180830381600087803b1580156117f757600080fd5b505af115801561180b573d6000803e3d6000fd5b505050506040513d602081101561182157600080fd5b8101908080519060200190929190505050905095945050505050565b60006118476152a3565b611852338585613d74565b9050600061185e614261565b905060003073ffffffffffffffffffffffffffffffffffffffff166318160ddd6040518163ffffffff1660e01b815260040160206040518083038186803b1580156118a857600080fd5b505afa1580156118bc573d6000803e3d6000fd5b505050506040513d60208110156118d257600080fd5b810190808051906020019092919050505090506118ed614344565b73ffffffffffffffffffffffffffffffffffffffff1663b2fb30cb8685600001516040518363ffffffff1660e01b81526004018083815260200182815260200192505050600060405180830381600087803b15801561194b57600080fd5b505af115801561195f573d6000803e3d6000fd5b505050506119728183856000015161441f565b935061197e3385614480565b3373ffffffffffffffffffffffffffffffffffffffff167fc4d117100433dc3e9c2d45638e275b85825b34d885843496c575b6084f4ec03f846000015186604051808381526020018281526020019250505060405180910390a283935050505092915050565b60003373ffffffffffffffffffffffffffffffffffffffff16600660009054906101000a900473ffffffffffffffffffffffffffffffffffffffff1673ffffffffffffffffffffffffffffffffffffffff1614611a8c576040517f08c379a00000000000000000000000000000000000000000000000000000000081526004018080602001828103825260248152602001806152be6024913960400191505060405180910390fd5b611a946137b5565b73ffffffffffffffffffffffffffffffffffffffff1663573339788585856040518463ffffffff1660e01b8152600401808481526020018381526020018281526020019350505050602060405180830381600087803b158015611af657600080fd5b505af1158015611b0a573d6000803e3d6000fd5b505050506040513d6020811015611b2057600080fd5b810190808051906020019092919050505090509392505050565b6000803073ffffffffffffffffffffffffffffffffffffffff166318160ddd6040518163ffffffff1660e01b815260040160206040518083038186803b158015611b8357600080fd5b505afa158015611b97573d6000803e3d6000fd5b505050506040513d6020811015611bad57600080fd5b810190808051906020019092919050505090506000611bca614261565b9050611bd782828661441f565b92505050919050565b6000808611611c57576040517f08c379a00000000000000000000000000000000000000000000000000000000081526004018080602001828103825260208152602001807f776974686472617720616d6f756e74206d75737420626520706f73697469766581525060200191505060405180910390fd5b6000611c61614261565b905060003073ffffffffffffffffffffffffffffffffffffffff166318160ddd6040518163ffffffff1660e01b815260040160206040518083038186803b158015611cab57600080fd5b505afa158015611cbf573d6000803e3d6000fd5b505050506040513d6020811015611cd557600080fd5b81019080805190602001909291905050509050611cf23389614647565b6000611cfc614344565b90506000471115611d69578073ffffffffffffffffffffffffffffffffffffffff1663f83d08ba476040518263ffffffff1660e01b81526004016000604051808303818588803b158015611d4f57600080fd5b505af1158015611d63573d6000803e3d6000fd5b50505050505b611d8e82611d80858c61480b90919063ffffffff16565b61489190919063ffffffff16565b935060008173ffffffffffffffffffffffffffffffffffffffff16633f199b40306040518263ffffffff1660e01b8152600401808273ffffffffffffffffffffffffffffffffffffffff1673ffffffffffffffffffffffffffffffffffffffff16815260200191505060206040518083038186803b158015611e0f57600080fd5b505afa158015611e23573d6000803e3d6000fd5b505050506040513d6020811015611e3957600080fd5b8101908080519060200190929190505050905080851115611e7457611e73611e6a82876148db90919063ffffffff16565b8a8a8a8a614925565b5b8173ffffffffffffffffffffffffffffffffffffffff16636198e339866040518263ffffffff1660e01b815260040180828152602001915050600060405180830381600087803b158015611ec757600080fd5b505af1158015611edb573d6000803e3d6000fd5b505050506060808373ffffffffffffffffffffffffffffffffffffffff1663f340c0d0306040518263ffffffff1660e01b8152600401808273ffffffffffffffffffffffffffffffffffffffff1673ffffffffffffffffffffffffffffffffffffffff16815260200191505060006040518083038186803b158015611f5f57600080fd5b505afa158015611f73573d6000803e3d6000fd5b505050506040513d6000823e3d601f19601f820116820180604052506040811015611f9d57600080fd5b8101908080516040519392919084640100000000821115611fbd57600080fd5b83820191506020820185811115611fd357600080fd5b8251866020820283011164010000000082111715611ff057600080fd5b8083526020830192505050908051906020019060200280838360005b8381101561202757808201518184015260208101905061200c565b505050509050016040526020018051604051939291908464010000000082111561205057600080fd5b8382019150602082018581111561206657600080fd5b825186602082028301116401000000008211171561208357600080fd5b8083526020830192505050908051906020019060200280838360005b838110156120ba57808201518184015260208101905061209f565b50505050905001604052505050915091506000826001845103815181106120dd57fe5b602002602001015190508781146120f057fe5b600760003373ffffffffffffffffffffffffffffffffffffffff1673ffffffffffffffffffffffffffffffffffffffff16815260200190815260200160002060405180604001604052808381526020018460018651038151811061215057fe5b60200260200101518152509080600181540180825580915050600190039060005260206000209060020201600090919091909150600082015181600001556020820151816001015550503373ffffffffffffffffffffffffffffffffffffffff167f9e0bfdc780ebb366c4e3e459f4fece8e4a4bba134b1488059a416f925e1c251e8e83604051808381526020018281526020019250505060405180910390a28797505050505050505095945050505050565b60003373ffffffffffffffffffffffffffffffffffffffff16600660009054906101000a900473ffffffffffffffffffffffffffffffffffffffff1673ffffffffffffffffffffffffffffffffffffffff16146122ab576040517f08c379a00000000000000000000000000000000000000000000000000000000081526004018080602001828103825260248152602001806152be6024913960400191505060405180910390fd5b6122b36134db565b73ffffffffffffffffffffffffffffffffffffffff16636e19847587878787876040518663ffffffff1660e01b8152600401808673ffffffffffffffffffffffffffffffffffffffff1673ffffffffffffffffffffffffffffffffffffffff1681526020018581526020018473ffffffffffffffffffffffffffffffffffffffff1673ffffffffffffffffffffffffffffffffffffffff1681526020018373ffffffffffffffffffffffffffffffffffffffff1673ffffffffffffffffffffffffffffffffffffffff16815260200182815260200195505050505050602060405180830381600087803b1580156123a957600080fd5b505af11580156123bd573d6000803e3d6000fd5b505050506040513d60208110156123d357600080fd5b8101908080519060200190929190505050905095945050505050565b6123f76135b6565b73ffffffffffffffffffffffffffffffffffffffff16600560019054906101000a900473ffffffffffffffffffffffffffffffffffffffff1673ffffffffffffffffffffffffffffffffffffffff16146124b9576040517f08c379a00000000000000000000000000000000000000000000000000000000081526004018080602001828103825260208152602001807f4f776e61626c653a2063616c6c6572206973206e6f7420746865206f776e657281525060200191505060405180910390fd5b80600660006101000a81548173ffffffffffffffffffffffffffffffffffffffff021916908373ffffffffffffffffffffffffffffffffffffffff1602179055508073ffffffffffffffffffffffffffffffffffffffff16600660009054906101000a900473ffffffffffffffffffffffffffffffffffffffff1673ffffffffffffffffffffffffffffffffffffffff167f2a0f2e37aa533ef1b3af4e6f14e6ce19de9e9f29a5b4498f938ddd9a7a41de4460405160405180910390a350565b60008060008373ffffffffffffffffffffffffffffffffffffffff1673ffffffffffffffffffffffffffffffffffffffff168152602001908152602001600020549050919050565b6125c96135b6565b73ffffffffffffffffffffffffffffffffffffffff16600560019054906101000a900473ffffffffffffffffffffffffffffffffffffffff1673ffffffffffffffffffffffffffffffffffffffff161461268b576040517f08c379a00000000000000000000000000000000000000000000000000000000081526004018080602001828103825260208152602001807f4f776e61626c653a2063616c6c6572206973206e6f7420746865206f776e657281525060200191505060405180910390fd5b600073ffffffffffffffffffffffffffffffffffffffff16600560019054906101000a900473ffffffffffffffffffffffffffffffffffffffff1673ffffffffffffffffffffffffffffffffffffffff167f8be0079c531659141344cd1fd0a4f28419497f9722a3daafe3b4186f6b6457e060405160405180910390a36000600560016101000a81548173ffffffffffffffffffffffffffffffffffffffff021916908373ffffffffffffffffffffffffffffffffffffffff160217905550565b6000803073ffffffffffffffffffffffffffffffffffffffff166318160ddd6040518163ffffffff1660e01b815260040160206040518083038186803b15801561279557600080fd5b505afa1580156127a9573d6000803e3d6000fd5b505050506040513d60208110156127bf57600080fd5b8101908080519060200190929190505050905060008114156127e557600091505061281b565b60006127ef614261565b905061281682612808838761480b90919063ffffffff16565b61489190919063ffffffff16565b925050505b919050565b60003373ffffffffffffffffffffffffffffffffffffffff16600660009054906101000a900473ffffffffffffffffffffffffffffffffffffffff1673ffffffffffffffffffffffffffffffffffffffff16146128c8576040517f08c379a00000000000000000000000000000000000000000000000000000000081526004018080602001828103825260248152602001806152be6024913960400191505060405180910390fd5b6128d06134db565b73ffffffffffffffffffffffffffffffffffffffff1663580d747a868686866040518563ffffffff1660e01b8152600401808573ffffffffffffffffffffffffffffffffffffffff1673ffffffffffffffffffffffffffffffffffffffff1681526020018481526020018373ffffffffffffffffffffffffffffffffffffffff1673ffffffffffffffffffffffffffffffffffffffff1681526020018273ffffffffffffffffffffffffffffffffffffffff1673ffffffffffffffffffffffffffffffffffffffff168152602001945050505050602060405180830381600087803b1580156129be57600080fd5b505af11580156129d2573d6000803e3d6000fd5b505050506040513d60208110156129e857600080fd5b81019080805190602001909291905050509050949350505050565b6000600560019054906101000a900473ffffffffffffffffffffffffffffffffffffffff16905090565b606060048054600181600116156101000203166002900480601f016020809104026020016040519081016040528092919081815260200182805460018160011615610100020316600290048015612ac55780601f10612a9a57610100808354040283529160200191612ac5565b820191906000526020600020905b815481529060010190602001808311612aa857829003601f168201915b5050505050905090565b6000612b92612adc6135b6565b84612b8d8560405180606001604052806025815260200161551a6025913960016000612b066135b6565b73ffffffffffffffffffffffffffffffffffffffff1673ffffffffffffffffffffffffffffffffffffffff16815260200190815260200160002060008a73ffffffffffffffffffffffffffffffffffffffff1673ffffffffffffffffffffffffffffffffffffffff16815260200190815260200160002054613b519092919063ffffffff16565b6135be565b6001905092915050565b6000612bb0612ba96135b6565b8484613890565b6001905092915050565b60003373ffffffffffffffffffffffffffffffffffffffff16600660009054906101000a900473ffffffffffffffffffffffffffffffffffffffff1673ffffffffffffffffffffffffffffffffffffffff1614612c62576040517f08c379a00000000000000000000000000000000000000000000000000000000081526004018080602001828103825260248152602001806152be6024913960400191505060405180910390fd5b612c6a6137b5565b73ffffffffffffffffffffffffffffffffffffffff1663bbb2eab98585856040518463ffffffff1660e01b815260040180848152602001838152602001826003811115612cb357fe5b60ff1681526020019350505050602060405180830381600087803b158015612cda57600080fd5b505af1158015612cee573d6000803e3d6000fd5b505050506040513d6020811015612d0457600080fd5b810190808051906020019092919050505090509392505050565b600080612d3b34612d2d614261565b6148db90919063ffffffff16565b905060003073ffffffffffffffffffffffffffffffffffffffff166318160ddd6040518163ffffffff1660e01b815260040160206040518083038186803b158015612d8557600080fd5b505afa158015612d99573d6000803e3d6000fd5b505050506040513d6020811015612daf57600080fd5b81019080805190602001909291905050509050612dcd81833461441f565b9250612dd93384614480565b600047905034811015612de857fe5b612df0614344565b73ffffffffffffffffffffffffffffffffffffffff1663f83d08ba826040518263ffffffff1660e01b81526004016000604051808303818588803b158015612e3757600080fd5b505af1158015612e4b573d6000803e3d6000fd5b50505050503373ffffffffffffffffffffffffffffffffffffffff167f73a19dd210f1a7f902193214c0ee91dd35ee5b4d920cba8d519eca65a7b488ca3486604051808381526020018281526020019250505060405180910390a283935050505090565b6000600160008473ffffffffffffffffffffffffffffffffffffffff1673ffffffffffffffffffffffffffffffffffffffff16815260200190815260200160002060008373ffffffffffffffffffffffffffffffffffffffff1673ffffffffffffffffffffffffffffffffffffffff16815260200190815260200160002054905092915050565b6000612f406152a3565b612f4b338585613d74565b9050612f55614344565b73ffffffffffffffffffffffffffffffffffffffff16632e1a7d4d846040518263ffffffff1660e01b815260040180828152602001915050600060405180830381600087803b158015612fa757600080fd5b505af1158015612fbb573d6000803e3d6000fd5b50505050612fc76150fd565b73ffffffffffffffffffffffffffffffffffffffff1663a9059cbb3383600001516040518363ffffffff1660e01b8152600401808373ffffffffffffffffffffffffffffffffffffffff1673ffffffffffffffffffffffffffffffffffffffff16815260200182815260200192505050602060405180830381600087803b15801561305157600080fd5b505af1158015613065573d6000803e3d6000fd5b505050506040513d602081101561307b57600080fd5b81019080805190602001909291905050506130e1576040517f08c379a000000000000000000000000000000000000000000000000000000000815260040180806020018281038252602c81526020018061542d602c913960400191505060405180910390fd5b3373ffffffffffffffffffffffffffffffffffffffff167fc30674dd0fb78fbd6f76bcf2213e36dc143fad985b255420b31444f9f29f6d5c82600001516040518082815260200191505060405180910390a2806000015191505092915050565b6131496135b6565b73ffffffffffffffffffffffffffffffffffffffff16600560019054906101000a900473ffffffffffffffffffffffffffffffffffffffff1673ffffffffffffffffffffffffffffffffffffffff161461320b576040517f08c379a00000000000000000000000000000000000000000000000000000000081526004018080602001828103825260208152602001807f4f776e61626c653a2063616c6c6572206973206e6f7420746865206f776e657281525060200191505060405180910390fd5b600073ffffffffffffffffffffffffffffffffffffffff168173ffffffffffffffffffffffffffffffffffffffff161415613291576040517f08c379a00000000000000000000000000000000000000000000000000000000081526004018080602001828103825260268152602001806153276026913960400191505060405180910390fd5b8073ffffffffffffffffffffffffffffffffffffffff16600560019054906101000a900473ffffffffffffffffffffffffffffffffffffffff1673ffffffffffffffffffffffffffffffffffffffff167f8be0079c531659141344cd1fd0a4f28419497f9722a3daafe3b4186f6b6457e060405160405180910390a380600560016101000a81548173ffffffffffffffffffffffffffffffffffffffff021916908373ffffffffffffffffffffffffffffffffffffffff16021790555050565b6060806000600760008573ffffffffffffffffffffffffffffffffffffffff1673ffffffffffffffffffffffffffffffffffffffff168152602001908152602001600020905060008180549050905060608167ffffffffffffffff811180156133b957600080fd5b506040519080825280602002602001820160405280156133e85781602001602082028036833780820191505090505b50905060608267ffffffffffffffff8111801561340457600080fd5b506040519080825280602002602001820160405280156134335781602001602082028036833780820191505090505b50905060008090505b838110156134cb5784818154811061345057fe5b90600052602060002090600202016000015483828151811061346e57fe5b60200260200101818152505084818154811061348657fe5b9060005260206000209060020201600101548282815181106134a457fe5b6020026020010181815250506134c4600182613c1190919063ffffffff16565b905061343c565b5081819550955050505050915091565b600061ce1073ffffffffffffffffffffffffffffffffffffffff1663dcf0aaed60405160200180807f456c656374696f6e0000000000000000000000000000000000000000000000008152506008019050604051602081830303815290604052805190602001206040518263ffffffff1660e01b81526004018082815260200191505060206040518083038186803b15801561357657600080fd5b505afa15801561358a573d6000803e3d6000fd5b505050506040513d60208110156135a057600080fd5b8101908080519060200190929190505050905090565b600033905090565b600073ffffffffffffffffffffffffffffffffffffffff168373ffffffffffffffffffffffffffffffffffffffff161415613644576040517f08c379a00000000000000000000000000000000000000000000000000000000081526004018080602001828103825260248152602001806154a06024913960400191505060405180910390fd5b600073ffffffffffffffffffffffffffffffffffffffff168273ffffffffffffffffffffffffffffffffffffffff1614156136ca576040517f08c379a000000000000000000000000000000000000000000000000000000000815260040180806020018281038252602281526020018061534d6022913960400191505060405180910390fd5b80600160008573ffffffffffffffffffffffffffffffffffffffff1673ffffffffffffffffffffffffffffffffffffffff16815260200190815260200160002060008473ffffffffffffffffffffffffffffffffffffffff1673ffffffffffffffffffffffffffffffffffffffff168152602001908152602001600020819055508173ffffffffffffffffffffffffffffffffffffffff168373ffffffffffffffffffffffffffffffffffffffff167f8c5be1e5ebec7d5bd14f71427d1e84f3dd0314c0f7b2291e5b200ac8c7c3b925836040518082815260200191505060405180910390a3505050565b600061ce1073ffffffffffffffffffffffffffffffffffffffff1663dcf0aaed60405160200180807f476f7665726e616e636500000000000000000000000000000000000000000000815250600a019050604051602081830303815290604052805190602001206040518263ffffffff1660e01b81526004018082815260200191505060206040518083038186803b15801561385057600080fd5b505afa158015613864573d6000803e3d6000fd5b505050506040513d602081101561387a57600080fd5b8101908080519060200190929190505050905090565b600073ffffffffffffffffffffffffffffffffffffffff168373ffffffffffffffffffffffffffffffffffffffff161415613916576040517f08c379a00000000000000000000000000000000000000000000000000000000081526004018080602001828103825260258152602001806154596025913960400191505060405180910390fd5b600073ffffffffffffffffffffffffffffffffffffffff168273ffffffffffffffffffffffffffffffffffffffff16141561399c576040517f08c379a00000000000000000000000000000000000000000000000000000000081526004018080602001828103825260238152602001806152e26023913960400191505060405180910390fd5b6139a78383836151d8565b613a128160405180606001604052806026815260200161539d602691396000808773ffffffffffffffffffffffffffffffffffffffff1673ffffffffffffffffffffffffffffffffffffffff16815260200190815260200160002054613b519092919063ffffffff16565b6000808573ffffffffffffffffffffffffffffffffffffffff1673ffffffffffffffffffffffffffffffffffffffff16815260200190815260200160002081905550613aa5816000808573ffffffffffffffffffffffffffffffffffffffff1673ffffffffffffffffffffffffffffffffffffffff16815260200190815260200160002054613c1190919063ffffffff16565b6000808473ffffffffffffffffffffffffffffffffffffffff1673ffffffffffffffffffffffffffffffffffffffff168152602001908152602001600020819055508173ffffffffffffffffffffffffffffffffffffffff168373ffffffffffffffffffffffffffffffffffffffff167fddf252ad1be2c89b69c2b068fc378daa952ba7f163c4a11628f55a4df523b3ef836040518082815260200191505060405180910390a3505050565b6000838311158290613bfe576040517f08c379a00000000000000000000000000000000000000000000000000000000081526004018080602001828103825283818151815260200191508051906020019080838360005b83811015613bc3578082015181840152602081019050613ba8565b50505050905090810190601f168015613bf05780820380516001836020036101000a031916815260200191505b509250505060405180910390fd5b5060008385039050809150509392505050565b600080828401905083811015613c8f576040517f08c379a000000000000000000000000000000000000000000000000000000000815260040180806020018281038252601b8152602001807f536166654d6174683a206164646974696f6e206f766572666c6f77000000000081525060200191505060405180910390fd5b8091505092915050565b600061ce1073ffffffffffffffffffffffffffffffffffffffff1663dcf0aaed60405160200180807f4163636f756e74730000000000000000000000000000000000000000000000008152506008019050604051602081830303815290604052805190602001206040518263ffffffff1660e01b81526004018082815260200191505060206040518083038186803b158015613d3457600080fd5b505afa158015613d48573d6000803e3d6000fd5b505050506040513d6020811015613d5e57600080fd5b8101908080519060200190929190505050905090565b613d7c6152a3565b6000600760008673ffffffffffffffffffffffffffffffffffffffff1673ffffffffffffffffffffffffffffffffffffffff168152602001908152602001600020905080805490508410613e38576040517f08c379a000000000000000000000000000000000000000000000000000000000815260040180806020018281038252601c8152602001807f6261642070656e64696e67207769746864726177616c20696e6465780000000081525060200191505060405180910390fd5b606080613e43614344565b73ffffffffffffffffffffffffffffffffffffffff1663f340c0d0306040518263ffffffff1660e01b8152600401808273ffffffffffffffffffffffffffffffffffffffff1673ffffffffffffffffffffffffffffffffffffffff16815260200191505060006040518083038186803b158015613ebf57600080fd5b505afa158015613ed3573d6000803e3d6000fd5b505050506040513d6000823e3d601f19601f820116820180604052506040811015613efd57600080fd5b8101908080516040519392919084640100000000821115613f1d57600080fd5b83820191506020820185811115613f3357600080fd5b8251866020820283011164010000000082111715613f5057600080fd5b8083526020830192505050908051906020019060200280838360005b83811015613f87578082015181840152602081019050613f6c565b5050505090500160405260200180516040519392919084640100000000821115613fb057600080fd5b83820191506020820185811115613fc657600080fd5b8251866020820283011164010000000082111715613fe357600080fd5b8083526020830192505050908051906020019060200280838360005b8381101561401a578082015181840152602081019050613fff565b505050509050016040525050509150915081518510614084576040517f08c379a000000000000000000000000000000000000000000000000000000000815260040180806020018281038252602281526020018061547e6022913960400191505060405180910390fd5b81858151811061409057fe5b60200260200101518387815481106140a457fe5b9060005260206000209060020201600001541461410c576040517f08c379a000000000000000000000000000000000000000000000000000000000815260040180806020018281038252602a8152602001806154c4602a913960400191505060405180910390fd5b80858151811061411857fe5b602002602001015183878154811061412c57fe5b90600052602060002090600202016001015414614194576040517f08c379a000000000000000000000000000000000000000000000000000000000815260040180806020018281038252602e81526020018061536f602e913960400191505060405180910390fd5b8286815481106141a057fe5b9060005260206000209060020201604051806040016040529081600082015481526020016001820154815250509350826001848054905003815481106141e257fe5b90600052602060002090600202018387815481106141fc57fe5b906000526020600020906002020160008201548160000155600182015481600101559050508280548061422b57fe5b60019003818190600052602060002090600202016000808201600090556001820160009055505090558393505050509392505050565b60008061426c614344565b73ffffffffffffffffffffffffffffffffffffffff166330ec70f5306040518263ffffffff1660e01b8152600401808273ffffffffffffffffffffffffffffffffffffffff1673ffffffffffffffffffffffffffffffffffffffff16815260200191505060206040518083038186803b1580156142e857600080fd5b505afa1580156142fc573d6000803e3d6000fd5b505050506040513d602081101561431257600080fd5b81019080805190602001909291905050509050600047905061433d8183613c1190919063ffffffff16565b9250505090565b600061ce1073ffffffffffffffffffffffffffffffffffffffff1663dcf0aaed60405160200180807f4c6f636b6564476f6c6400000000000000000000000000000000000000000000815250600a019050604051602081830303815290604052805190602001206040518263ffffffff1660e01b81526004018082815260200191505060206040518083038186803b1580156143df57600080fd5b505afa1580156143f3573d6000803e3d6000fd5b505050506040513d602081101561440957600080fd5b8101908080519060200190929190505050905090565b60008084148061442f5750600083145b156144515761444a620100008361480b90919063ffffffff16565b9050614479565b61447683614468868561480b90919063ffffffff16565b61489190919063ffffffff16565b90505b9392505050565b600073ffffffffffffffffffffffffffffffffffffffff168273ffffffffffffffffffffffffffffffffffffffff161415614523576040517f08c379a000000000000000000000000000000000000000000000000000000000815260040180806020018281038252601f8152602001807f45524332303a206d696e7420746f20746865207a65726f20616464726573730081525060200191505060405180910390fd5b61452f600083836151d8565b61454481600254613c1190919063ffffffff16565b60028190555061459b816000808573ffffffffffffffffffffffffffffffffffffffff1673ffffffffffffffffffffffffffffffffffffffff16815260200190815260200160002054613c1190919063ffffffff16565b6000808473ffffffffffffffffffffffffffffffffffffffff1673ffffffffffffffffffffffffffffffffffffffff168152602001908152602001600020819055508173ffffffffffffffffffffffffffffffffffffffff16600073ffffffffffffffffffffffffffffffffffffffff167fddf252ad1be2c89b69c2b068fc378daa952ba7f163c4a11628f55a4df523b3ef836040518082815260200191505060405180910390a35050565b600073ffffffffffffffffffffffffffffffffffffffff168273ffffffffffffffffffffffffffffffffffffffff1614156146cd576040517f08c379a000000000000000000000000000000000000000000000000000000000815260040180806020018281038252602181526020018061540c6021913960400191505060405180910390fd5b6146d9826000836151d8565b61474481604051806060016040528060228152602001615305602291396000808673ffffffffffffffffffffffffffffffffffffffff1673ffffffffffffffffffffffffffffffffffffffff16815260200190815260200160002054613b519092919063ffffffff16565b6000808473ffffffffffffffffffffffffffffffffffffffff1673ffffffffffffffffffffffffffffffffffffffff1681526020019081526020016000208190555061479b816002546148db90919063ffffffff16565b600281905550600073ffffffffffffffffffffffffffffffffffffffff168273ffffffffffffffffffffffffffffffffffffffff167fddf252ad1be2c89b69c2b068fc378daa952ba7f163c4a11628f55a4df523b3ef836040518082815260200191505060405180910390a35050565b60008083141561481e576000905061488b565b600082840290508284828161482f57fe5b0414614886576040517f08c379a00000000000000000000000000000000000000000000000000000000081526004018080602001828103825260218152602001806153c36021913960400191505060405180910390fd5b809150505b92915050565b60006148d383836040518060400160405280601a81526020017f536166654d6174683a206469766973696f6e206279207a65726f0000000000008152506151dd565b905092915050565b600061491d83836040518060400160405280601e81526020017f536166654d6174683a207375627472616374696f6e206f766572666c6f770000815250613b51565b905092915050565b600061492f6134db565b905060608173ffffffffffffffffffffffffffffffffffffffff1663457578a3306040518263ffffffff1660e01b8152600401808273ffffffffffffffffffffffffffffffffffffffff1673ffffffffffffffffffffffffffffffffffffffff16815260200191505060006040518083038186803b1580156149b057600080fd5b505afa1580156149c4573d6000803e3d6000fd5b505050506040513d6000823e3d601f19601f8201168201806040525060208110156149ee57600080fd5b8101908080516040519392919084640100000000821115614a0e57600080fd5b83820191506020820185811115614a2457600080fd5b8251866020820283011164010000000082111715614a4157600080fd5b8083526020830192505050908051906020019060200280838360005b83811015614a78578082015181840152602081019050614a5d565b5050505090500160405250505090506000815111614afe576040517f08c379a000000000000000000000000000000000000000000000000000000000815260040180806020018281038252601a8152602001807f6e6f7420656e6f75676820766f74657320746f207265766f6b6500000000000081525060200191505060405180910390fd5b6000600182510390506000828281518110614b1557fe5b6020026020010151905060008473ffffffffffffffffffffffffffffffffffffffff16639b95975f83306040518363ffffffff1660e01b8152600401808373ffffffffffffffffffffffffffffffffffffffff1673ffffffffffffffffffffffffffffffffffffffff1681526020018273ffffffffffffffffffffffffffffffffffffffff1673ffffffffffffffffffffffffffffffffffffffff1681526020019250505060206040518083038186803b158015614bd257600080fd5b505afa158015614be6573d6000803e3d6000fd5b505050506040513d6020811015614bfc57600080fd5b8101908080519060200190929190505050905060008573ffffffffffffffffffffffffffffffffffffffff1663d3e242a484306040518363ffffffff1660e01b8152600401808373ffffffffffffffffffffffffffffffffffffffff1673ffffffffffffffffffffffffffffffffffffffff1681526020018273ffffffffffffffffffffffffffffffffffffffff1673ffffffffffffffffffffffffffffffffffffffff1681526020019250505060206040518083038186803b158015614cc257600080fd5b505afa158015614cd6573d6000803e3d6000fd5b505050506040513d6020811015614cec57600080fd5b810190808051906020019092919050505090508a614d138284613c1190919063ffffffff16565b1015614d6a576040517f08c379a000000000000000000000000000000000000000000000000000000000815260040180806020018281038252602c8152602001806154ee602c913960400191505060405180910390fd5b60008290508b811115614d7b578b90505b6000614d90828e6148db90919063ffffffff16565b90506000821115614f40578773ffffffffffffffffffffffffffffffffffffffff16639dfb608186848f8f8b6040518663ffffffff1660e01b8152600401808673ffffffffffffffffffffffffffffffffffffffff1673ffffffffffffffffffffffffffffffffffffffff1681526020018581526020018473ffffffffffffffffffffffffffffffffffffffff1673ffffffffffffffffffffffffffffffffffffffff1681526020018373ffffffffffffffffffffffffffffffffffffffff1673ffffffffffffffffffffffffffffffffffffffff16815260200182815260200195505050505050602060405180830381600087803b158015614e9257600080fd5b505af1158015614ea6573d6000803e3d6000fd5b505050506040513d6020811015614ebc57600080fd5b8101908080519060200190929190505050614f3f576040517f08c379a00000000000000000000000000000000000000000000000000000000081526004018080602001828103825260148152602001807f7265766f6b6550656e64696e67206661696c656400000000000000000000000081525060200191505060405180910390fd5b5b60008111156150ee578773ffffffffffffffffffffffffffffffffffffffff16636e19847586838d8d8b6040518663ffffffff1660e01b8152600401808673ffffffffffffffffffffffffffffffffffffffff1673ffffffffffffffffffffffffffffffffffffffff1681526020018581526020018473ffffffffffffffffffffffffffffffffffffffff1673ffffffffffffffffffffffffffffffffffffffff1681526020018373ffffffffffffffffffffffffffffffffffffffff1673ffffffffffffffffffffffffffffffffffffffff16815260200182815260200195505050505050602060405180830381600087803b15801561504057600080fd5b505af1158015615054573d6000803e3d6000fd5b505050506040513d602081101561506a57600080fd5b81019080805190602001909291905050506150ed576040517f08c379a00000000000000000000000000000000000000000000000000000000081526004018080602001828103825260138152602001807f7265766f6b65416374697665206661696c65640000000000000000000000000081525060200191505060405180910390fd5b5b50505050505050505050505050565b600061ce1073ffffffffffffffffffffffffffffffffffffffff1663dcf0aaed60405160200180807f476f6c64546f6b656e00000000000000000000000000000000000000000000008152506009019050604051602081830303815290604052805190602001206040518263ffffffff1660e01b81526004018082815260200191505060206040518083038186803b15801561519857600080fd5b505afa1580156151ac573d6000803e3d6000fd5b505050506040513d60208110156151c257600080fd5b8101908080519060200190929190505050905090565b505050565b60008083118290615289576040517f08c379a00000000000000000000000000000000000000000000000000000000081526004018080602001828103825283818151815260200191508051906020019080838360005b8381101561524e578082015181840152602081019050615233565b50505050905090810190601f16801561527b5780820380516001836020036101000a031916815260200191505b509250505060405180910390fd5b50600083858161529557fe5b049050809150509392505050565b60405180604001604052806000815260200160008152509056fe63616c6c6572206d757374206265207468652072656769737465726564205f766f74657245524332303a207472616e7366657220746f20746865207a65726f206164647265737345524332303a206275726e20616d6f756e7420657863656564732062616c616e63654f776e61626c653a206e6577206f776e657220697320746865207a65726f206164647265737345524332303a20617070726f766520746f20746865207a65726f20616464726573736d69736d6174636865642074696d657374616d7020666f7220696e64657820616e6420696e646578476c6f62616c45524332303a207472616e7366657220616d6f756e7420657863656564732062616c616e6365536166654d6174683a206d756c7469706c69636174696f6e206f766572666c6f7745524332303a207472616e7366657220616d6f756e74206578636565647320616c6c6f77616e636545524332303a206275726e2066726f6d20746865207a65726f2061646472657373756e6578706563746564206661696c7572653a2043454c4f207472616e7366657220686173206661696c656445524332303a207472616e736665722066726f6d20746865207a65726f20616464726573736261642070656e64696e67207769746864726177616c20696e646578476c6f62616c45524332303a20617070726f76652066726f6d20746865207a65726f20616464726573736d69736d6174636865642076616c756520666f7220696e64657820616e6420696e646578476c6f62616c6e6f7420656e6f75676820756e6c6f636b65642043454c4f20616e64207265766f6b61626c6520766f74657345524332303a2064656372656173656420616c6c6f77616e63652062656c6f77207a65726fa2646970667358221220987f96333c4a688d3fdbeb4c7cfcd83d67788db2c595856b39110f367e27d0ef64736f6c63430006080033",
  "immutableReferences": {},
  "source": "//SPDX-License-Identifier: MIT\npragma solidity 0.6.8;\n\nimport \"@openzeppelin/contracts/access/Ownable.sol\";\nimport \"@openzeppelin/contracts/math/SafeMath.sol\";\nimport \"@openzeppelin/contracts/token/ERC20/IERC20.sol\";\nimport \"@openzeppelin/contracts/token/ERC20/ERC20.sol\";\n\nimport \"./UsingRegistry.sol\";\nimport \"./interfaces/IRegistry.sol\";\nimport \"./interfaces/ILockedGold.sol\";\nimport \"./interfaces/IElection.sol\";\nimport \"./interfaces/IVoterProxy.sol\";\n\n/// @title SavingsCELO contract\ncontract SavingsCELO is ERC20, IVoterProxy, Ownable, UsingRegistry {\n\tusing SafeMath for uint256;\n\n\t/// @dev authorized voter contract.\n\taddress public _voter;\n\n\t/// @dev emitted when new voter contract is authorized.\n\t/// @param previousVoter previously authorized voter.\n\t/// @param newVoter newly authorized voter.\n\tevent VoterAuthorized(address indexed previousVoter, address indexed newVoter);\n\n\t/// @dev PendingWithdrawal matches struct from core Celo LockedGold.sol.\n\tstruct PendingWithdrawal {\n\t\t// The value of the pending withdrawal.\n\t\tuint256 value;\n\t\t// The timestamp at which the pending withdrawal becomes available.\n\t\tuint256 timestamp;\n\t}\n\t/// @dev Maps address to its initiated pending withdrawals.\n\tmapping(address => PendingWithdrawal[]) internal pendingByAddr;\n\n\t/// @dev emitted when CELO is deposited in SavingsCELO contract.\n\t/// @param from address that initiated the deposit.\n\t/// @param celoAmount amount of CELO deposited.\n\t/// @param savingsAmount amount of sCELO tokens received in exchange.\n\tevent Deposited(address indexed from, uint256 celoAmount, uint256 savingsAmount);\n\n\t/// @dev emitted when CELO withdrawal process is initiated.\n\t/// @param from address that initiated the withdrawal.\n\t/// @param savingsAmount amount of sCELO tokens that were returned.\n\t/// @param celoAmount amount of CELO tokens that will be withdrawn.\n\tevent WithdrawStarted(address indexed from, uint256 savingsAmount, uint256 celoAmount);\n\n\t/// @dev emitted when withdrawal process is finished.\n\t/// @param from address that finished the withdrawal process.\n\t/// @param celoAmount amount of CELO tokens that were withdrawn from SavingsCELO contract.\n\tevent WithdrawFinished(address indexed from, uint256 celoAmount);\n\n\t/// @dev emitted when withdrawal process is cancelled.\n\t/// @param from address that canceled the withdrawal process.\n\t/// @param celoAmount amount of CELO tokens that were returned to SavingsCELO contract.\n\t/// @param savingsAmount amount of sCELO tokens that were returned to the caller.\n\tevent WithdrawCanceled(address indexed from, uint256 celoAmount, uint256 savingsAmount);\n\n\tconstructor (\n    string memory _name,\n    string memory _symbol\n  ) ERC20(_name, _symbol) public {\n\t\trequire(\n\t\t\tgetAccounts().createAccount(),\n\t\t\t\"createAccount failed\");\n\t}\n\n\t/// @notice Authorizes new vote signer that can manage voting for all of contract's locked\n\t/// CELO. {v, r, s} constitutes proof-of-key-possession signature of signer for this\n\t/// contract address.\n\t/// @dev Vote Signer authorization exists only as a means of a potential escape-hatch if\n\t/// some sort of really unexpected issue occurs. By default, it is expected that there\n\t/// will be no authorized vote signer, and a voting contract will be configured using\n\t/// .authorizeVoterProxy call instead.\n\t/// @param signer address to authorize as a signer.\n\t/// @param v {v, r, s} proof-of-key possession signature.\n\t/// @param r {v, r, s} proof-of-key possession signature.\n\t/// @param s {v, r, s} proof-of-key possession signature.\n\tfunction authorizeVoteSigner(\n\t\taddress signer,\n\t\tuint8 v,\n\t\tbytes32 r,\n\t\tbytes32 s) onlyOwner external {\n\t\tgetAccounts().authorizeVoteSigner(signer, v, r, s);\n\t}\n\n\t/// @notice Authorizes another contract to perform voting on behalf of SavingsCELO.\n\t/// @param voter address of the voter contract to authorize.\n\tfunction authorizeVoterProxy(address voter) onlyOwner external {\n\t\t_voter = voter;\n\t\temit VoterAuthorized(_voter, voter);\n\t}\n\n\tmodifier voterOnly() {\n\t\trequire(_voter == msg.sender, \"caller must be the registered _voter\");\n\t\t_;\n\t}\n\n\t// Proxy functions for validator election voting.\n\tfunction proxyVote(\n\t\taddress group,\n\t\tuint256 value,\n\t\taddress lesser,\n\t\taddress greater) voterOnly external override returns (bool) {\n\t\treturn getElection().vote(group, value, lesser, greater);\n\t}\n\tfunction proxyActivate(address group) voterOnly external override returns (bool) {\n\t\treturn getElection().activate(group);\n\t}\n\tfunction proxyRevokeActive(\n\t\taddress group,\n\t\tuint256 value,\n\t\taddress lesser,\n\t\taddress greater,\n\t\tuint256 index) voterOnly external override returns (bool) {\n\t\treturn getElection().revokeActive(group, value, lesser, greater, index);\n\t}\n\tfunction proxyRevokePending(\n\t\taddress group,\n\t\tuint256 value,\n\t\taddress lesser,\n\t\taddress greater,\n\t\tuint256 index) voterOnly external override returns (bool) {\n\t\treturn getElection().revokePending(group, value, lesser, greater, index);\n\t}\n\n\t// Proxy functions for governance voting.\n\tfunction proxyGovernanceVote(\n\t\tuint256 proposalId,\n\t\tuint256 index,\n\t\tGovernance.VoteValue value) voterOnly external override returns (bool) {\n\t\treturn getGovernance().vote(proposalId, index, value);\n\t}\n\tfunction proxyGovernanceUpvote(\n\t\tuint256 proposalId,\n\t\tuint256 lesser,\n\t\tuint256 greater) voterOnly external override returns (bool) {\n\t\treturn getGovernance().upvote(proposalId, lesser, greater);\n\t}\n\tfunction proxyGovernanceRevokeUpvote(\n\t\tuint256 lesser,\n\t\tuint256 greater) voterOnly external override returns (bool) {\n\t\treturn getGovernance().revokeUpvote(lesser, greater);\n\t}\n\n\t/// @notice Deposits CELO to the contract in exchange of SavingsCELO (sCELO) tokens.\n\t/// @return toMint Amount of sCELO tokens minted.\n\tfunction deposit() external payable returns (uint256 toMint) {\n\t\tuint256 totalCELO = totalSupplyCELO().sub(msg.value);\n\t\tuint256 totalSavingsCELO = this.totalSupply();\n\t\ttoMint = savingsToMint(totalSavingsCELO, totalCELO, msg.value);\n\t\t_mint(msg.sender, toMint);\n\n\t\tuint256 toLock = address(this).balance;\n\t\tassert(toLock >= msg.value);\n\t\t// It is safe to call _lockedGold.lock() with 0 value.\n\t\tgetLockedGold().lock{value: toLock}();\n\t\temit Deposited(msg.sender, msg.value, toMint);\n\t\treturn toMint;\n\t}\n\n\t/// @notice Starts withdraw process for savingsAmount SavingsCELO tokens.\n\t/// @dev Since only nonvoting CELO can be unlocked, withdrawStart might have to call Election.revoke* calls to\n\t/// revoke currently cast votes. To keep this call simple, maximum amount of CELO that can be unlocked in single call is:\n\t/// `nonvoting locked CELO + total votes for last voted group`. This way, withdrawStart call will only\n\t/// revoke votes for a single group at most, making it simpler overall.\n\t///\n\t/// lesser.../greater... parameters are needed to perform Election.revokePending and Election.revokeActive\n\t/// calls. See Election contract for more details. lesser.../greater... arguments\n\t/// are for last voted group by this contract, since revoking only happens for the last voted group.\n\t///\n\t/// Note that it is possible for this call to fail due to accidental race conditions if lesser.../greater...\n\t/// parameters no longer match due to changes in overall voting ranking.\n\t/// @return toWithdraw amount of CELO tokens that will be withdrawn.\n\tfunction withdrawStart(\n\t\tuint256 savingsAmount,\n\t\taddress lesserAfterPendingRevoke,\n\t\taddress greaterAfterPendingRevoke,\n\t\taddress lesserAfterActiveRevoke,\n\t\taddress greaterAfterActiveRevoke\n\t\t) external returns (uint256 toWithdraw) {\n\t\trequire(savingsAmount > 0, \"withdraw amount must be positive\");\n\t\tuint256 totalCELO = totalSupplyCELO();\n\t\tuint256 totalSavingsCELO = this.totalSupply();\n\t\t_burn(msg.sender, savingsAmount);\n\t\t// If there is any unlocked CELO, lock it to make rest of the logic always\n\t\t// consistent. There should never be unlocked CELO in the contract unless some\n\t\t// user explicitly donates it.\n\t\tILockedGold _lockedGold = getLockedGold();\n\t\tif (address(this).balance > 0) {\n\t\t\t_lockedGold.lock{value: address(this).balance}();\n\t\t}\n\t\t// toUnlock formula comes from:\n\t\t// (supply / totalCELO) === (supply - savingsAmount) / (totalCELO - toUnlock)\n\t\ttoWithdraw = savingsAmount.mul(totalCELO).div(totalSavingsCELO);\n\t\tuint256 nonvoting = _lockedGold.getAccountNonvotingLockedGold(address(this));\n\t\tif (toWithdraw > nonvoting) {\n\t\t\trevokeVotes(\n\t\t\t\ttoWithdraw.sub(nonvoting),\n\t\t\t\tlesserAfterPendingRevoke,\n\t\t\t\tgreaterAfterPendingRevoke,\n\t\t\t\tlesserAfterActiveRevoke,\n\t\t\t\tgreaterAfterActiveRevoke\n\t\t\t);\n\t\t}\n\t\t_lockedGold.unlock(toWithdraw);\n\n\t\t(uint256[] memory pendingValues, uint256[] memory pendingTimestamps) = _lockedGold.getPendingWithdrawals(address(this));\n\t\tuint256 pendingValue = pendingValues[pendingValues.length - 1];\n\t\tassert(pendingValue == toWithdraw);\n\t\tpendingByAddr[msg.sender].push(PendingWithdrawal(pendingValue, pendingTimestamps[pendingTimestamps.length - 1]));\n\t\temit WithdrawStarted(msg.sender, savingsAmount, pendingValue);\n\t\treturn toWithdraw;\n\t}\n\n\t/// @dev Helper function to revoke cast votes. See documentation for .withdrawStart function for more\n\t/// information about the arguments.\n\tfunction revokeVotes(\n\t\tuint256 toRevoke,\n\t\taddress lesserAfterPendingRevoke,\n\t\taddress greaterAfterPendingRevoke,\n\t\taddress lesserAfterActiveRevoke,\n\t\taddress greaterAfterActiveRevoke\n\t) private {\n\t\tIElection _election = getElection();\n\t\taddress[] memory votedGroups = _election.getGroupsVotedForByAccount(address(this));\n\t\trequire(votedGroups.length > 0, \"not enough votes to revoke\");\n\t\tuint256 revokeIndex = votedGroups.length - 1;\n\t\taddress revokeGroup = votedGroups[revokeIndex];\n\t\tuint256 pendingVotes = _election.getPendingVotesForGroupByAccount(revokeGroup, address(this));\n\t\tuint256 activeVotes = _election.getActiveVotesForGroupByAccount(revokeGroup, address(this));\n\t\trequire(\n\t\t\tpendingVotes.add(activeVotes) >= toRevoke,\n\t\t\t\"not enough unlocked CELO and revokable votes\");\n\n\t\tuint256 toRevokePending = pendingVotes;\n\t\tif (toRevokePending > toRevoke) {\n\t\t\ttoRevokePending = toRevoke;\n\t\t}\n\t\tuint256 toRevokeActive = toRevoke.sub(toRevokePending);\n\t\tif (toRevokePending > 0) {\n\t\t\trequire(\n\t\t\t\t_election.revokePending(\n\t\t\t\trevokeGroup, toRevokePending, lesserAfterPendingRevoke, greaterAfterPendingRevoke, revokeIndex),\n\t\t\t\t\"revokePending failed\");\n\t\t}\n\t\tif (toRevokeActive > 0) {\n\t\t\trequire(\n\t\t\t\t_election.revokeActive(\n\t\t\t\trevokeGroup, toRevokeActive, lesserAfterActiveRevoke, greaterAfterActiveRevoke, revokeIndex),\n\t\t\t\t\"revokeActive failed\");\n\t\t}\n\t}\n\n\t/// @notice Finishes withdraw process, transfering unlocked CELO back to the caller.\n\t/// @param index index of pending withdrawal to finish as returned by .pendingWithdrawals() call.\n\t/// @param indexGlobal index of matching pending withdrawal as returned by lockedGold.getPendingWithdrawals() call.\n\t/// @return amount of CELO tokens withdrawn.\n\tfunction withdrawFinish(uint256 index, uint256 indexGlobal) external returns (uint256) {\n\t\tPendingWithdrawal memory pending = popPendingWithdrawal(msg.sender, index, indexGlobal);\n\t\tgetLockedGold().withdraw(indexGlobal);\n\t\trequire(\n\t\t\tgetGoldToken().transfer(msg.sender, pending.value),\n\t\t\t\"unexpected failure: CELO transfer has failed\");\n\t\temit WithdrawFinished(msg.sender, pending.value);\n\t\treturn pending.value;\n\t}\n\n\t/// @notice Cancels withdraw process, re-locking CELO back in the contract and returning SavingsCELO tokens back\n\t/// to the caller. At the time of re-locking, SavingsCELO can be more valuable compared to when .withdrawStart\n\t/// was called. Thus caller might receive less SavingsCELO compared to what was supplied to .withdrawStart.\n\t/// @param index index of pending withdrawal to finish as returned by .pendingWithdrawals() call.\n\t/// @param indexGlobal index of matching pending withdrawal as returned by lockedGold.getPendingWithdrawals() call.\n\t/// @return toMint amount of sCELO tokens returned to the caller.\n\tfunction withdrawCancel(uint256 index, uint256 indexGlobal) external returns (uint256 toMint) {\n\t\tPendingWithdrawal memory pending = popPendingWithdrawal(msg.sender, index, indexGlobal);\n\t\tuint256 totalCELO = totalSupplyCELO();\n\t\tuint256 totalSavingsCELO = this.totalSupply();\n\t\tgetLockedGold().relock(indexGlobal, pending.value);\n\t\ttoMint = savingsToMint(totalSavingsCELO, totalCELO, pending.value);\n\t\t_mint(msg.sender, toMint);\n\t\temit WithdrawCanceled(msg.sender, pending.value, toMint);\n\t\treturn toMint;\n\t}\n\n\t/// @dev Returns (values[], timestamps[]) of all pending withdrawals for given address.\n\tfunction pendingWithdrawals(address addr)\n\t\texternal\n\t\tview\n\t\treturns (uint256[] memory, uint256[] memory) {\n\t\tPendingWithdrawal[] storage pending = pendingByAddr[addr];\n\t\tuint256 length = pending.length;\n\t\tuint256[] memory values = new uint256[](length);\n\t\tuint256[] memory timestamps = new uint256[](length);\n\t\tfor (uint256 i = 0; i < length; i = i.add(1)) {\n\t\t\tvalues[i] = pending[i].value;\n\t\t\ttimestamps[i] = pending[i].timestamp;\n\t\t}\n\t\treturn (values, timestamps);\n\t}\n\n\t/// @dev Helper function to verify indexes and to pop specific PendingWithdrawal from the list.\n\tfunction popPendingWithdrawal(\n\t\taddress addr,\n\t\tuint256 index,\n\t\tuint256 indexGlobal) private returns(PendingWithdrawal memory pending) {\n\t\tPendingWithdrawal[] storage pendings = pendingByAddr[addr];\n\t\trequire(index < pendings.length, \"bad pending withdrawal index\");\n\t\t(uint256[] memory pendingValues, uint256[] memory pendingTimestamps) = getLockedGold().getPendingWithdrawals(address(this));\n\t\trequire(indexGlobal < pendingValues.length, \"bad pending withdrawal indexGlobal\");\n\t\trequire(pendings[index].value == pendingValues[indexGlobal], \"mismatched value for index and indexGlobal\");\n\t\trequire(pendings[index].timestamp == pendingTimestamps[indexGlobal], \"mismatched timestamp for index and indexGlobal\");\n\t\tpending = pendings[index]; // This makes a copy.\n\n\t\tpendings[index] = pendings[pendings.length - 1];\n\t\tpendings.pop();\n\t\treturn pending;\n\t}\n\n\n\t/// @notice Returns amount of CELO that can be claimed for savingsAmount SavingsCELO tokens.\n\t/// @param savingsAmount amount of sCELO tokens.\n\t/// @return amount of CELO tokens.\n\tfunction savingsToCELO(uint256 savingsAmount) external view returns (uint256) {\n\t\tuint256 totalSavingsCELO = this.totalSupply();\n\t\tif (totalSavingsCELO == 0) {\n\t\t\treturn 0;\n\t\t}\n\t\tuint256 totalCELO = totalSupplyCELO();\n\t\treturn savingsAmount.mul(totalCELO).div(totalSavingsCELO);\n\t}\n\t/// @notice Returns amount of SavingsCELO tokens that can be received for depositing celoAmount CELO tokens.\n\t/// @param celoAmount amount of CELO tokens.\n\t/// @return amount of sCELO tokens.\n\tfunction celoToSavings(uint256 celoAmount) external view returns (uint256) {\n\t\tuint256 totalSavingsCELO = this.totalSupply();\n\t\tuint256 totalCELO = totalSupplyCELO();\n\t\treturn savingsToMint(totalSavingsCELO, totalCELO, celoAmount);\n\t}\n\n\tfunction totalSupplyCELO() internal view returns(uint256) {\n\t\tuint256 locked = getLockedGold().getAccountTotalLockedGold(address(this));\n\t\tuint256 unlocked = address(this).balance;\n\t\treturn locked.add(unlocked);\n\t}\n\n\tfunction savingsToMint(\n\t\tuint256 totalSavingsCELO,\n\t\tuint256 totalCELO,\n\t\tuint256 celoToAdd) private pure returns (uint256) {\n\t\tif (totalSavingsCELO == 0 || totalCELO == 0) {\n\t\t\t// 2^16 is chosen arbitrarily. since maximum amount of CELO is capped at 1BLN, we can afford to\n\t\t\t// multiply it by 2^16 without running into any overflow issues. This also makes it clear that\n\t\t\t// SavingsCELO and CELO don't have 1:1 relationship to avoid confusion down the line.\n\t\t\treturn celoToAdd.mul(65536);\n\t\t}\n\t\treturn celoToAdd.mul(totalSavingsCELO).div(totalCELO);\n\t}\n\n\treceive() external payable {}\n}\n",
  "sourcePath": "/home/home/rewards-studio/contracts/SavingsCELO.sol",
  "compiler": {
    "name": "solc",
    "version": "0.6.8+commit.0bbfe453.Emscripten.clang"
  },
  "schemaVersion": "3.4.1",
  "updatedAt": "2021-07-16T00:27:43.283Z",
  "devdoc": {
    "methods": {
      "allowance(address,address)": {
        "details": "See {IERC20-allowance}."
      },
      "approve(address,uint256)": {
        "details": "See {IERC20-approve}.     * Requirements:     * - `spender` cannot be the zero address."
      },
      "authorizeVoteSigner(address,uint8,bytes32,bytes32)": {
        "details": "Vote Signer authorization exists only as a means of a potential escape-hatch if some sort of really unexpected issue occurs. By default, it is expected that there will be no authorized vote signer, and a voting contract will be configured using .authorizeVoterProxy call instead.",
        "params": {
          "r": "{v, r, s} proof-of-key possession signature.",
          "s": "{v, r, s} proof-of-key possession signature.",
          "signer": "address to authorize as a signer.",
          "v": "{v, r, s} proof-of-key possession signature."
        }
      },
      "authorizeVoterProxy(address)": {
        "params": {
          "voter": "address of the voter contract to authorize."
        }
      },
      "balanceOf(address)": {
        "details": "See {IERC20-balanceOf}."
      },
      "celoToSavings(uint256)": {
        "params": {
          "celoAmount": "amount of CELO tokens."
        },
        "returns": {
          "_0": "amount of sCELO tokens."
        }
      },
      "decimals()": {
        "details": "Returns the number of decimals used to get its user representation. For example, if `decimals` equals `2`, a balance of `505` tokens should be displayed to a user as `5,05` (`505 / 10 ** 2`).     * Tokens usually opt for a value of 18, imitating the relationship between Ether and Wei. This is the value {ERC20} uses, unless {_setupDecimals} is called.     * NOTE: This information is only used for _display_ purposes: it in no way affects any of the arithmetic of the contract, including {IERC20-balanceOf} and {IERC20-transfer}."
      },
      "decreaseAllowance(address,uint256)": {
        "details": "Atomically decreases the allowance granted to `spender` by the caller.     * This is an alternative to {approve} that can be used as a mitigation for problems described in {IERC20-approve}.     * Emits an {Approval} event indicating the updated allowance.     * Requirements:     * - `spender` cannot be the zero address. - `spender` must have allowance for the caller of at least `subtractedValue`."
      },
      "deposit()": {
        "returns": {
          "toMint": "Amount of sCELO tokens minted."
        }
      },
      "increaseAllowance(address,uint256)": {
        "details": "Atomically increases the allowance granted to `spender` by the caller.     * This is an alternative to {approve} that can be used as a mitigation for problems described in {IERC20-approve}.     * Emits an {Approval} event indicating the updated allowance.     * Requirements:     * - `spender` cannot be the zero address."
      },
      "name()": {
        "details": "Returns the name of the token."
      },
      "owner()": {
        "details": "Returns the address of the current owner."
      },
      "pendingWithdrawals(address)": {
        "details": "Returns (values[], timestamps[]) of all pending withdrawals for given address."
      },
      "renounceOwnership()": {
        "details": "Leaves the contract without owner. It will not be possible to call `onlyOwner` functions anymore. Can only be called by the current owner.     * NOTE: Renouncing ownership will leave the contract without an owner, thereby removing any functionality that is only available to the owner."
      },
      "savingsToCELO(uint256)": {
        "params": {
          "savingsAmount": "amount of sCELO tokens."
        },
        "returns": {
          "_0": "amount of CELO tokens."
        }
      },
      "symbol()": {
        "details": "Returns the symbol of the token, usually a shorter version of the name."
      },
      "totalSupply()": {
        "details": "See {IERC20-totalSupply}."
      },
      "transfer(address,uint256)": {
        "details": "See {IERC20-transfer}.     * Requirements:     * - `recipient` cannot be the zero address. - the caller must have a balance of at least `amount`."
      },
      "transferFrom(address,address,uint256)": {
        "details": "See {IERC20-transferFrom}.     * Emits an {Approval} event indicating the updated allowance. This is not required by the EIP. See the note at the beginning of {ERC20};     * Requirements: - `sender` and `recipient` cannot be the zero address. - `sender` must have a balance of at least `amount`. - the caller must have allowance for ``sender``'s tokens of at least `amount`."
      },
      "transferOwnership(address)": {
        "details": "Transfers ownership of the contract to a new account (`newOwner`). Can only be called by the current owner."
      },
      "withdrawCancel(uint256,uint256)": {
        "params": {
          "index": "index of pending withdrawal to finish as returned by .pendingWithdrawals() call.",
          "indexGlobal": "index of matching pending withdrawal as returned by lockedGold.getPendingWithdrawals() call."
        },
        "returns": {
          "toMint": "amount of sCELO tokens returned to the caller."
        }
      },
      "withdrawFinish(uint256,uint256)": {
        "params": {
          "index": "index of pending withdrawal to finish as returned by .pendingWithdrawals() call.",
          "indexGlobal": "index of matching pending withdrawal as returned by lockedGold.getPendingWithdrawals() call."
        },
        "returns": {
          "_0": "amount of CELO tokens withdrawn."
        }
      },
      "withdrawStart(uint256,address,address,address,address)": {
        "details": "Since only nonvoting CELO can be unlocked, withdrawStart might have to call Election.revoke* calls to revoke currently cast votes. To keep this call simple, maximum amount of CELO that can be unlocked in single call is: `nonvoting locked CELO + total votes for last voted group`. This way, withdrawStart call will only revoke votes for a single group at most, making it simpler overall. \t/// lesser.../greater... parameters are needed to perform Election.revokePending and Election.revokeActive calls. See Election contract for more details. lesser.../greater... arguments are for last voted group by this contract, since revoking only happens for the last voted group. \t/// Note that it is possible for this call to fail due to accidental race conditions if lesser.../greater... parameters no longer match due to changes in overall voting ranking.",
        "returns": {
          "toWithdraw": "amount of CELO tokens that will be withdrawn."
        }
      }
    },
    "title": "SavingsCELO contract"
  },
  "userdoc": {
    "methods": {
      "authorizeVoteSigner(address,uint8,bytes32,bytes32)": {
        "notice": "Authorizes new vote signer that can manage voting for all of contract's locked CELO. {v, r, s} constitutes proof-of-key-possession signature of signer for this contract address."
      },
      "authorizeVoterProxy(address)": {
        "notice": "Authorizes another contract to perform voting on behalf of SavingsCELO."
      },
      "celoToSavings(uint256)": {
        "notice": "Returns amount of SavingsCELO tokens that can be received for depositing celoAmount CELO tokens."
      },
      "deposit()": {
        "notice": "Deposits CELO to the contract in exchange of SavingsCELO (sCELO) tokens."
      },
      "savingsToCELO(uint256)": {
        "notice": "Returns amount of CELO that can be claimed for savingsAmount SavingsCELO tokens."
      },
      "withdrawCancel(uint256,uint256)": {
        "notice": "Cancels withdraw process, re-locking CELO back in the contract and returning SavingsCELO tokens back to the caller. At the time of re-locking, SavingsCELO can be more valuable compared to when .withdrawStart was called. Thus caller might receive less SavingsCELO compared to what was supplied to .withdrawStart."
      },
      "withdrawFinish(uint256,uint256)": {
        "notice": "Finishes withdraw process, transfering unlocked CELO back to the caller."
      },
      "withdrawStart(uint256,address,address,address,address)": {
        "notice": "Starts withdraw process for savingsAmount SavingsCELO tokens."
      }
    }
  }
}